{
  "_format": "hh-sol-artifact-1",
  "contractName": "KrewPersonal",
  "sourceName": "contracts/KrewPersonal.sol",
  "abi": [
    {
      "anonymous": false,
      "inputs": [
        {
          "indexed": true,
          "internalType": "uint256",
          "name": "krew",
          "type": "uint256"
        },
        {
          "indexed": false,
          "internalType": "uint256",
          "name": "fee",
          "type": "uint256"
        }
      ],
      "name": "ClaimKrewFee",
      "type": "event"
    },
    {
      "anonymous": false,
      "inputs": [
        {
          "indexed": false,
          "internalType": "uint8",
          "name": "version",
          "type": "uint8"
        }
      ],
      "name": "Initialized",
      "type": "event"
    },
    {
      "anonymous": false,
      "inputs": [
        {
          "indexed": true,
          "internalType": "uint256",
          "name": "krewId",
          "type": "uint256"
        },
        {
          "indexed": true,
          "internalType": "address",
          "name": "creator",
          "type": "address"
        }
      ],
      "name": "KrewCreated",
      "type": "event"
    },
    {
      "anonymous": false,
      "inputs": [
        {
          "indexed": true,
          "internalType": "address",
          "name": "previousOwner",
          "type": "address"
        },
        {
          "indexed": true,
          "internalType": "address",
          "name": "newOwner",
          "type": "address"
        }
      ],
      "name": "OwnershipTransferred",
      "type": "event"
    },
    {
      "anonymous": false,
      "inputs": [
        {
          "indexed": false,
          "internalType": "uint256",
          "name": "percent",
          "type": "uint256"
        }
      ],
      "name": "SetKrewOwnerFeePercent",
      "type": "event"
    },
    {
      "anonymous": false,
      "inputs": [
        {
          "indexed": true,
          "internalType": "address",
          "name": "oracle",
          "type": "address"
        }
      ],
      "name": "SetOracleAddress",
      "type": "event"
    },
    {
      "anonymous": false,
      "inputs": [
        {
          "indexed": true,
          "internalType": "address",
          "name": "destination",
          "type": "address"
        }
      ],
      "name": "SetProtocolFeeDestination",
      "type": "event"
    },
    {
      "anonymous": false,
      "inputs": [
        {
          "indexed": false,
          "internalType": "uint256",
          "name": "percent",
          "type": "uint256"
        }
      ],
      "name": "SetProtocolFeePercent",
      "type": "event"
    },
    {
      "anonymous": false,
      "inputs": [
        {
          "indexed": true,
          "internalType": "address",
          "name": "trader",
          "type": "address"
        },
        {
          "indexed": true,
          "internalType": "uint256",
          "name": "krew",
          "type": "uint256"
        },
        {
          "indexed": true,
          "internalType": "bool",
          "name": "isBuy",
          "type": "bool"
        },
        {
          "indexed": false,
          "internalType": "uint256",
          "name": "amount",
          "type": "uint256"
        },
        {
          "indexed": false,
          "internalType": "uint256",
          "name": "price",
          "type": "uint256"
        },
        {
          "indexed": false,
          "internalType": "uint256",
          "name": "protocolFee",
          "type": "uint256"
        },
        {
          "indexed": false,
          "internalType": "uint256",
          "name": "krewOwnerFee",
          "type": "uint256"
        },
        {
          "indexed": false,
          "internalType": "uint256",
          "name": "additionalFee",
          "type": "uint256"
        },
        {
          "indexed": false,
          "internalType": "uint256",
          "name": "supply",
          "type": "uint256"
        }
      ],
      "name": "Trade",
      "type": "event"
    },
    {
      "inputs": [
        {
          "internalType": "uint256",
          "name": "krew",
          "type": "uint256"
        },
        {
          "internalType": "uint256",
          "name": "amount",
          "type": "uint256"
        },
        {
          "internalType": "bytes",
          "name": "oracleSignature",
          "type": "bytes"
        }
      ],
      "name": "buyKeys",
      "outputs": [],
      "stateMutability": "payable",
      "type": "function"
    },
    {
      "inputs": [
        {
          "internalType": "uint256",
          "name": "price",
          "type": "uint256"
        },
        {
          "internalType": "bytes",
          "name": "oracleSignature",
          "type": "bytes"
        }
      ],
      "name": "calculateAdditionalTokenOwnerFee",
      "outputs": [
        {
          "internalType": "uint256",
          "name": "",
          "type": "uint256"
        }
      ],
      "stateMutability": "view",
      "type": "function"
    },
    {
      "inputs": [
        {
          "internalType": "uint256",
          "name": "krew",
          "type": "uint256"
        }
      ],
      "name": "claimKrewFee",
      "outputs": [],
      "stateMutability": "nonpayable",
      "type": "function"
    },
    {
      "inputs": [],
      "name": "createKrew",
      "outputs": [],
      "stateMutability": "nonpayable",
      "type": "function"
    },
    {
      "inputs": [
        {
          "internalType": "uint256",
          "name": "krewId",
          "type": "uint256"
        }
      ],
      "name": "existsKrew",
      "outputs": [
        {
          "internalType": "bool",
          "name": "",
          "type": "bool"
        }
      ],
      "stateMutability": "view",
      "type": "function"
    },
    {
      "inputs": [
        {
          "internalType": "uint256",
          "name": "krew",
          "type": "uint256"
        },
        {
          "internalType": "uint256",
          "name": "amount",
          "type": "uint256"
        }
      ],
      "name": "getBuyPrice",
      "outputs": [
        {
          "internalType": "uint256",
          "name": "",
          "type": "uint256"
        }
      ],
      "stateMutability": "view",
      "type": "function"
    },
    {
      "inputs": [
        {
          "internalType": "uint256",
          "name": "krew",
          "type": "uint256"
        },
        {
          "internalType": "uint256",
          "name": "amount",
          "type": "uint256"
        }
      ],
      "name": "getBuyPriceAfterFee",
      "outputs": [
        {
          "internalType": "uint256",
          "name": "",
          "type": "uint256"
        }
      ],
      "stateMutability": "view",
      "type": "function"
    },
    {
      "inputs": [
        {
          "internalType": "uint256",
          "name": "supply",
          "type": "uint256"
        },
        {
          "internalType": "uint256",
          "name": "amount",
          "type": "uint256"
        }
      ],
      "name": "getPrice",
      "outputs": [
        {
          "internalType": "uint256",
          "name": "",
          "type": "uint256"
        }
      ],
      "stateMutability": "pure",
      "type": "function"
    },
    {
      "inputs": [
        {
          "internalType": "uint256",
          "name": "krew",
          "type": "uint256"
        },
        {
          "internalType": "uint256",
          "name": "amount",
          "type": "uint256"
        }
      ],
      "name": "getSellPrice",
      "outputs": [
        {
          "internalType": "uint256",
          "name": "",
          "type": "uint256"
        }
      ],
      "stateMutability": "view",
      "type": "function"
    },
    {
      "inputs": [
        {
          "internalType": "uint256",
          "name": "krew",
          "type": "uint256"
        },
        {
          "internalType": "uint256",
          "name": "amount",
          "type": "uint256"
        }
      ],
      "name": "getSellPriceAfterFee",
      "outputs": [
        {
          "internalType": "uint256",
          "name": "",
          "type": "uint256"
        }
      ],
      "stateMutability": "view",
      "type": "function"
    },
    {
      "inputs": [
        {
          "internalType": "uint256",
          "name": "",
          "type": "uint256"
        },
        {
          "internalType": "address",
          "name": "",
          "type": "address"
        }
      ],
      "name": "holderBalance",
      "outputs": [
        {
          "internalType": "uint256",
          "name": "",
          "type": "uint256"
        }
      ],
      "stateMutability": "view",
      "type": "function"
    },
    {
      "inputs": [
        {
          "internalType": "address payable",
          "name": "_protocolFeeDestination",
          "type": "address"
        },
        {
          "internalType": "uint256",
          "name": "_protocolFeePercent",
          "type": "uint256"
        },
        {
          "internalType": "uint256",
          "name": "_krewOwnerFeePercent",
          "type": "uint256"
        }
      ],
      "name": "initialize",
      "outputs": [],
      "stateMutability": "nonpayable",
      "type": "function"
    },
    {
      "inputs": [],
      "name": "krewOwnerFeePercent",
      "outputs": [
        {
          "internalType": "uint256",
          "name": "",
          "type": "uint256"
        }
      ],
      "stateMutability": "view",
      "type": "function"
    },
    {
      "inputs": [
        {
          "internalType": "uint256",
          "name": "",
          "type": "uint256"
        }
      ],
      "name": "krews",
      "outputs": [
        {
          "internalType": "address",
          "name": "owner",
          "type": "address"
        },
        {
          "internalType": "uint256",
          "name": "supply",
          "type": "uint256"
        },
        {
          "internalType": "uint256",
          "name": "accumulatedFee",
          "type": "uint256"
        }
      ],
      "stateMutability": "view",
      "type": "function"
    },
    {
      "inputs": [],
      "name": "nextKrewId",
      "outputs": [
        {
          "internalType": "uint256",
          "name": "",
          "type": "uint256"
        }
      ],
      "stateMutability": "view",
      "type": "function"
    },
    {
      "inputs": [],
      "name": "oracleAddress",
      "outputs": [
        {
          "internalType": "address",
          "name": "",
          "type": "address"
        }
      ],
      "stateMutability": "view",
      "type": "function"
    },
    {
      "inputs": [],
      "name": "owner",
      "outputs": [
        {
          "internalType": "address",
          "name": "",
          "type": "address"
        }
      ],
      "stateMutability": "view",
      "type": "function"
    },
    {
      "inputs": [],
      "name": "protocolFeeDestination",
      "outputs": [
        {
          "internalType": "address payable",
          "name": "",
          "type": "address"
        }
      ],
      "stateMutability": "view",
      "type": "function"
    },
    {
      "inputs": [],
      "name": "protocolFeePercent",
      "outputs": [
        {
          "internalType": "uint256",
          "name": "",
          "type": "uint256"
        }
      ],
      "stateMutability": "view",
      "type": "function"
    },
    {
      "inputs": [],
      "name": "renounceOwnership",
      "outputs": [],
      "stateMutability": "nonpayable",
      "type": "function"
    },
    {
      "inputs": [
        {
          "internalType": "uint256",
          "name": "krew",
          "type": "uint256"
        },
        {
          "internalType": "uint256",
          "name": "amount",
          "type": "uint256"
        },
        {
          "internalType": "bytes",
          "name": "oracleSignature",
          "type": "bytes"
        }
      ],
      "name": "sellKeys",
      "outputs": [],
      "stateMutability": "nonpayable",
      "type": "function"
    },
    {
      "inputs": [
        {
          "internalType": "uint256",
          "name": "_feePercent",
          "type": "uint256"
        }
      ],
      "name": "setKrewOwnerFeePercent",
      "outputs": [],
      "stateMutability": "nonpayable",
      "type": "function"
    },
    {
      "inputs": [
        {
          "internalType": "address",
          "name": "_oracle",
          "type": "address"
        }
      ],
      "name": "setOracleAddress",
      "outputs": [],
      "stateMutability": "nonpayable",
      "type": "function"
    },
    {
      "inputs": [
        {
          "internalType": "address payable",
          "name": "_feeDestination",
          "type": "address"
        }
      ],
      "name": "setProtocolFeeDestination",
      "outputs": [],
      "stateMutability": "nonpayable",
      "type": "function"
    },
    {
      "inputs": [
        {
          "internalType": "uint256",
          "name": "_feePercent",
          "type": "uint256"
        }
      ],
      "name": "setProtocolFeePercent",
      "outputs": [],
      "stateMutability": "nonpayable",
      "type": "function"
    },
    {
      "inputs": [
        {
          "internalType": "address",
          "name": "newOwner",
          "type": "address"
        }
      ],
      "name": "transferOwnership",
      "outputs": [],
      "stateMutability": "nonpayable",
      "type": "function"
    }
  ],
  "bytecode": "0x608060405234801561001057600080fd5b50611ac8806100206000396000f3fe6080604052600436106101815760003560e01c80638da5cb5b116100d1578063b1a491e01161008a578063cd9c712111610064578063cd9c71211461049d578063d6e6eb9f146104bd578063f2fde38b146104d3578063fb350a1b146104f357600080fd5b8063b1a491e014610447578063b84dd74314610467578063c157253d1461047d57600080fd5b80638da5cb5b146103895780639477d85d146103a7578063a10786b0146103c7578063a4983421146103e7578063a89ae4ba14610407578063ab0c02991461042757600080fd5b80634689fda21161013e5780635a114ff3116101185780635a114ff3146103145780635cf4ee9114610334578063715018a6146103545780637a1ac61e1461036957600080fd5b80634689fda2146102a65780634c69c00f146102bc5780634ce7957c146102dc57600080fd5b806303f822f314610186578063063a741f146101a85780630f6e81d9146101db57806318a8cfeb14610246578063422022571461027e57806342e817bf14610293575b600080fd5b34801561019257600080fd5b506101a66101a1366004611797565b610535565b005b3480156101b457600080fd5b506101c86101c33660046117b0565b610624565b6040519081526020015b60405180910390f35b3480156101e757600080fd5b506102216101f6366004611797565b609c602052600090815260409020805460018201546002909201546001600160a01b03909116919083565b604080516001600160a01b0390941684526020840192909252908201526060016101d2565b34801561025257600080fd5b506101c86102613660046117e7565b609d60209081526000928352604080842090915290825290205481565b34801561028a57600080fd5b506101a661069e565b6101a66102a13660046118ba565b610724565b3480156102b257600080fd5b506101c860995481565b3480156102c857600080fd5b506101a66102d736600461190a565b610746565b3480156102e857600080fd5b506097546102fc906001600160a01b031681565b6040516001600160a01b0390911681526020016101d2565b34801561032057600080fd5b506101a661032f3660046118ba565b610798565b34801561034057600080fd5b506101c861034f3660046117b0565b6107b4565b34801561036057600080fd5b506101a66108ca565b34801561037557600080fd5b506101a6610384366004611927565b6108de565b34801561039557600080fd5b506033546001600160a01b03166102fc565b3480156103b357600080fd5b506101c86103c23660046117b0565b610ab0565b3480156103d357600080fd5b506101a66103e236600461190a565b610ade565b3480156103f357600080fd5b506101a6610402366004611797565b610b30565b34801561041357600080fd5b50609a546102fc906001600160a01b031681565b34801561043357600080fd5b506101a6610442366004611797565b610b74565b34801561045357600080fd5b506101c861046236600461195c565b610bb1565b34801561047357600080fd5b506101c8609b5481565b34801561048957600080fd5b506101c86104983660046117b0565b610d2d565b3480156104a957600080fd5b506101c86104b83660046117b0565b610d49565b3480156104c957600080fd5b506101c860985481565b3480156104df57600080fd5b506101a66104ee36600461190a565b610db7565b3480156104ff57600080fd5b5061052561050e366004611797565b6000908152609c6020526040902060010154151590565b60405190151581526020016101d2565b61053d610e2d565b6000818152609c60205260409020546001600160a01b031633146105bc5760405162461bcd60e51b815260206004820152602b60248201527f4b726577506572736f6e616c3a204f6e6c79206b726577206f776e657220636160448201526a6e20636c61696d2066656560a81b60648201526084015b60405180910390fd5b6000818152609c6020526040812060020180549190556105dc3382610e86565b817f3483c4b3adbb1e96155eb71b7cb0739c9e90e2fd02a452e52310545a293783f18260405161060e91815260200190565b60405180910390a2506106216001606555565b50565b6000806106318484610d2d565b90506000670de0b6b3a76400006098548361064c91906119b9565b61065691906119d0565b90506000670de0b6b3a76400006099548461067191906119b9565b61067b91906119d0565b90508061068883856119f2565b61069291906119f2565b93505050505b92915050565b609b8054600091826106af83611a05565b909155506000818152609c6020908152604080832080546001600160a01b0319163390811782556001808301819055609d855283862082875290945282852093909355905193945092909184917fe80a1ac513c367b1e0f8fb7d4852f043ee635fa37d42944df34be8d5686b61d39190a35050565b60006107308484610d2d565b9050610740848483600186610fab565b50505050565b61074e6112e3565b609a80546001600160a01b0319166001600160a01b0383169081179091556040517f0adef86c673dfdb102affe9a454acea4a42a305e1feb982b4b2c97da980454a990600090a250565b60006107a48484610ab0565b9050610740848483600086610fab565b600080831561080f5760066107ca600186611a1e565b6107d59060026119b9565b6107e09060016119f2565b856107ec600182611a1e565b6107f691906119b9565b61080091906119b9565b61080a91906119d0565b610812565b60005b90506000841580156108245750836001145b61089957600684610836600188611a1e565b61084091906119f2565b61084b9060026119b9565b6108569060016119f2565b61086086886119f2565b8661086c60018a611a1e565b61087691906119f2565b61088091906119b9565b61088a91906119b9565b61089491906119d0565b61089c565b60005b905060006108aa8383611a1e565b905060646108c082670de0b6b3a76400006119b9565b61069291906119d0565b6108d26112e3565b6108dc600061133d565b565b600054610100900460ff16158080156108fe5750600054600160ff909116105b806109185750303b158015610918575060005460ff166001145b61097b5760405162461bcd60e51b815260206004820152602e60248201527f496e697469616c697a61626c653a20636f6e747261637420697320616c72656160448201526d191e481a5b9a5d1a585b1a5e995960921b60648201526084016105b3565b6000805460ff19166001179055801561099e576000805461ff0019166101001790555b6109a661138f565b6109ae6113be565b609780546001600160a01b0319166001600160a01b038616908117909155609884905560998390556040517f72fe3f5fb15c2671900303001fbe3a8adf9df5c76bfd269a9508c8753b9c35c990600090a26040518381527f98d1698e9a7ee55a2ded97de72077c93add26ce8534679021d0e7c44edcb325b9060200160405180910390a16040518281527fcef131bbef604e7ba86eb3f44a6ad6879b3702a4ff152f6a4815fd76e7f58ff89060200160405180910390a18015610740576000805461ff0019169055604051600181527f7f26b83ff96e1f2b6a682f133852f6798a09c465da95921460cefb38474024989060200160405180910390a150505050565b6000828152609c6020526040812060010154610ad790610ad1908490611a1e565b836107b4565b9392505050565b610ae66112e3565b609780546001600160a01b0319166001600160a01b0383169081179091556040517f72fe3f5fb15c2671900303001fbe3a8adf9df5c76bfd269a9508c8753b9c35c990600090a250565b610b386112e3565b60988190556040518181527f98d1698e9a7ee55a2ded97de72077c93add26ce8534679021d0e7c44edcb325b906020015b60405180910390a150565b610b7c6112e3565b60998190556040518181527fcef131bbef604e7ba86eb3f44a6ad6879b3702a4ff152f6a4815fd76e7f58ff890602001610b69565b6000806000610bbf846113ed565b915091506000610c2d8684604051602001610be4929190918252602082015260400190565b604051602081830303815290604052805190602001207f19457468657265756d205369676e6564204d6573736167653a0a3332000000006000908152601c91909152603c902090565b9050808214610c8a5760405162461bcd60e51b815260206004820152602360248201527f4b726577506572736f6e616c3a20496e76616c696420646174612070726f766960448201526219195960ea1b60648201526084016105b3565b6000610c9682876114c9565b609a549091506001600160a01b03808316911614610d055760405162461bcd60e51b815260206004820152602660248201527f4b726577506572736f6e616c3a20496e76616c6964206f7261636c65207369676044820152656e617475726560d01b60648201526084016105b3565b670de0b6b3a7640000610d1885896119b9565b610d2291906119d0565b979650505050505050565b6000828152609c6020526040812060010154610ad790836107b4565b600080610d568484610ab0565b90506000670de0b6b3a764000060985483610d7191906119b9565b610d7b91906119d0565b90506000670de0b6b3a764000060995484610d9691906119b9565b610da091906119d0565b905080610dad8385611a1e565b6106929190611a1e565b610dbf6112e3565b6001600160a01b038116610e245760405162461bcd60e51b815260206004820152602660248201527f4f776e61626c653a206e6577206f776e657220697320746865207a65726f206160448201526564647265737360d01b60648201526084016105b3565b6106218161133d565b600260655403610e7f5760405162461bcd60e51b815260206004820152601f60248201527f5265656e7472616e637947756172643a207265656e7472616e742063616c6c0060448201526064016105b3565b6002606555565b80471015610ed65760405162461bcd60e51b815260206004820152601d60248201527f416464726573733a20696e73756666696369656e742062616c616e636500000060448201526064016105b3565b6000826001600160a01b03168260405160006040518083038185875af1925050503d8060008114610f23576040519150601f19603f3d011682016040523d82523d6000602084013e610f28565b606091505b5050905080610f9f5760405162461bcd60e51b815260206004820152603a60248201527f416464726573733a20756e61626c6520746f2073656e642076616c75652c207260448201527f6563697069656e74206d6179206861766520726576657274656400000000000060648201526084016105b3565b505050565b6001606555565b610fb3610e2d565b6000610fbf8483610bb1565b9050600081670de0b6b3a764000060995487610fdb91906119b9565b610fe591906119d0565b610fef91906119f2565b9050600082670de0b6b3a76400006098548861100b91906119b9565b61101591906119d0565b61101f9190611a1e565b6000898152609c60205260409020600181015491925090861561116f5783611047848a6119f2565b61105191906119f2565b3410156110ab5760405162461bcd60e51b815260206004820152602260248201527f4b726577506572736f6e616c3a20496e73756666696369656e74207061796d656044820152611b9d60f21b60648201526084016105b3565b60008a8152609d60209081526040808320338452909152812080548b92906110d49084906119f2565b909155506110e4905089826119f2565b90508082600101819055508382600201600082825461110391906119f2565b909155505060975461111e906001600160a01b031684610e86565b83611129848a6119f2565b61113391906119f2565b34111561116a57600084846111488b34611a1e565b6111529190611a1e565b61115c9190611a1e565b90506111683382610e86565b505b61126f565b60008a8152609d602090815260408083203384529091529020548911156111d85760405162461bcd60e51b815260206004820152601f60248201527f4b726577506572736f6e616c3a20496e73756666696369656e74206b6579730060448201526064016105b3565b60008a8152609d60209081526040808320338452909152812080548b9290611201908490611a1e565b9091555061121190508982611a1e565b600183018190559050600084611227858b611a1e565b6112319190611a1e565b90508483600201600082825461124791906119f2565b9091555061125790503382610e86565b60975461126d906001600160a01b031685610e86565b505b604080518a8152602081018a9052908101849052606081018590526080810186905260a08101829052871515908b9033907fb8099acc1c84bf6f63b9ed9adcc4a35671c4892f876e1f382d0f8044e15a6d009060c00160405180910390a450505050506112dc6001606555565b5050505050565b6033546001600160a01b031633146108dc5760405162461bcd60e51b815260206004820181905260248201527f4f776e61626c653a2063616c6c6572206973206e6f7420746865206f776e657260448201526064016105b3565b603380546001600160a01b038381166001600160a01b0319831681179093556040519116919082907f8be0079c531659141344cd1fd0a4f28419497f9722a3daafe3b4186f6b6457e090600090a35050565b600054610100900460ff166113b65760405162461bcd60e51b81526004016105b390611a31565b6108dc6114ed565b600054610100900460ff166113e55760405162461bcd60e51b81526004016105b390611a31565b6108dc61151d565b60008082516060146114505760405162461bcd60e51b815260206004820152602660248201527f4b726577506572736f6e616c3a20496e76616c6964207369676e6174757265206044820152650d8cadccee8d60d31b60648201526084016105b3565b50506020810151604082015181670de0b6b3a76400008111156114c35760405162461bcd60e51b815260206004820152602560248201527f4b726577506572736f6e616c3a2046656520726174696f206f7574206f6620626044820152646f756e647360d81b60648201526084016105b3565b50915091565b60008060006114d88585611544565b915091506114e581611589565b509392505050565b600054610100900460ff166115145760405162461bcd60e51b81526004016105b390611a31565b6108dc3361133d565b600054610100900460ff16610fa45760405162461bcd60e51b81526004016105b390611a31565b600080825160410361157a5760208301516040840151606085015160001a61156e878285856116d3565b94509450505050611582565b506000905060025b9250929050565b600081600481111561159d5761159d611a7c565b036115a55750565b60018160048111156115b9576115b9611a7c565b036116065760405162461bcd60e51b815260206004820152601860248201527f45434453413a20696e76616c6964207369676e6174757265000000000000000060448201526064016105b3565b600281600481111561161a5761161a611a7c565b036116675760405162461bcd60e51b815260206004820152601f60248201527f45434453413a20696e76616c6964207369676e6174757265206c656e6774680060448201526064016105b3565b600381600481111561167b5761167b611a7c565b036106215760405162461bcd60e51b815260206004820152602260248201527f45434453413a20696e76616c6964207369676e6174757265202773272076616c604482015261756560f01b60648201526084016105b3565b6000807f7fffffffffffffffffffffffffffffff5d576e7357a4501ddfe92f46681b20a083111561170a575060009050600361178e565b6040805160008082526020820180845289905260ff881692820192909252606081018690526080810185905260019060a0016020604051602081039080840390855afa15801561175e573d6000803e3d6000fd5b5050604051601f1901519150506001600160a01b0381166117875760006001925092505061178e565b9150600090505b94509492505050565b6000602082840312156117a957600080fd5b5035919050565b600080604083850312156117c357600080fd5b50508035926020909101359150565b6001600160a01b038116811461062157600080fd5b600080604083850312156117fa57600080fd5b82359150602083013561180c816117d2565b809150509250929050565b634e487b7160e01b600052604160045260246000fd5b600082601f83011261183e57600080fd5b813567ffffffffffffffff8082111561185957611859611817565b604051601f8301601f19908116603f0116810190828211818310171561188157611881611817565b8160405283815286602085880101111561189a57600080fd5b836020870160208301376000602085830101528094505050505092915050565b6000806000606084860312156118cf57600080fd5b8335925060208401359150604084013567ffffffffffffffff8111156118f457600080fd5b6119008682870161182d565b9150509250925092565b60006020828403121561191c57600080fd5b8135610ad7816117d2565b60008060006060848603121561193c57600080fd5b8335611947816117d2565b95602085013595506040909401359392505050565b6000806040838503121561196f57600080fd5b82359150602083013567ffffffffffffffff81111561198d57600080fd5b6119998582860161182d565b9150509250929050565b634e487b7160e01b600052601160045260246000fd5b8082028115828204841417610698576106986119a3565b6000826119ed57634e487b7160e01b600052601260045260246000fd5b500490565b80820180821115610698576106986119a3565b600060018201611a1757611a176119a3565b5060010190565b81810381811115610698576106986119a3565b6020808252602b908201527f496e697469616c697a61626c653a20636f6e7472616374206973206e6f74206960408201526a6e697469616c697a696e6760a81b606082015260800190565b634e487b7160e01b600052602160045260246000fdfea2646970667358221220abc72913e8ba200be545891d23fb26cb2aabe5e58df42295b33c92d2ebcd332e64736f6c63430008140033",
  "linkReferences": {},
  "deployedLinkReferences": {}
}