{
  "_format": "hh-sol-artifact-1",
  "contractName": "KrewCommunal",
  "sourceName": "contracts/KrewCommunal.sol",
  "abi": [
    {
      "anonymous": false,
      "inputs": [
        {
          "indexed": true,
          "internalType": "address",
          "name": "holder",
          "type": "address"
        },
        {
          "indexed": true,
          "internalType": "uint256",
          "name": "krew",
          "type": "uint256"
        },
        {
          "indexed": false,
          "internalType": "uint256",
          "name": "fee",
          "type": "uint256"
        }
      ],
      "name": "ClaimHolderFee",
      "type": "event"
    },
    {
      "anonymous": false,
      "inputs": [
        {
          "indexed": false,
          "internalType": "uint8",
          "name": "version",
          "type": "uint8"
        }
      ],
      "name": "Initialized",
      "type": "event"
    },
    {
      "anonymous": false,
      "inputs": [
        {
          "indexed": true,
          "internalType": "uint256",
          "name": "krewId",
          "type": "uint256"
        },
        {
          "indexed": true,
          "internalType": "address",
          "name": "creator",
          "type": "address"
        }
      ],
      "name": "KrewCreated",
      "type": "event"
    },
    {
      "anonymous": false,
      "inputs": [
        {
          "indexed": true,
          "internalType": "address",
          "name": "previousOwner",
          "type": "address"
        },
        {
          "indexed": true,
          "internalType": "address",
          "name": "newOwner",
          "type": "address"
        }
      ],
      "name": "OwnershipTransferred",
      "type": "event"
    },
    {
      "anonymous": false,
      "inputs": [
        {
          "indexed": false,
          "internalType": "uint256",
          "name": "percent",
          "type": "uint256"
        }
      ],
      "name": "SetHolderFeePercent",
      "type": "event"
    },
    {
      "anonymous": false,
      "inputs": [
        {
          "indexed": true,
          "internalType": "address",
          "name": "oracle",
          "type": "address"
        }
      ],
      "name": "SetOracleAddress",
      "type": "event"
    },
    {
      "anonymous": false,
      "inputs": [
        {
          "indexed": true,
          "internalType": "address",
          "name": "destination",
          "type": "address"
        }
      ],
      "name": "SetProtocolFeeDestination",
      "type": "event"
    },
    {
      "anonymous": false,
      "inputs": [
        {
          "indexed": false,
          "internalType": "uint256",
          "name": "percent",
          "type": "uint256"
        }
      ],
      "name": "SetProtocolFeePercent",
      "type": "event"
    },
    {
      "anonymous": false,
      "inputs": [
        {
          "indexed": true,
          "internalType": "address",
          "name": "trader",
          "type": "address"
        },
        {
          "indexed": true,
          "internalType": "uint256",
          "name": "krew",
          "type": "uint256"
        },
        {
          "indexed": true,
          "internalType": "bool",
          "name": "isBuy",
          "type": "bool"
        },
        {
          "indexed": false,
          "internalType": "uint256",
          "name": "amount",
          "type": "uint256"
        },
        {
          "indexed": false,
          "internalType": "uint256",
          "name": "price",
          "type": "uint256"
        },
        {
          "indexed": false,
          "internalType": "uint256",
          "name": "protocolFee",
          "type": "uint256"
        },
        {
          "indexed": false,
          "internalType": "uint256",
          "name": "holderFee",
          "type": "uint256"
        },
        {
          "indexed": false,
          "internalType": "uint256",
          "name": "additionalFee",
          "type": "uint256"
        },
        {
          "indexed": false,
          "internalType": "uint256",
          "name": "supply",
          "type": "uint256"
        }
      ],
      "name": "Trade",
      "type": "event"
    },
    {
      "inputs": [
        {
          "internalType": "uint256",
          "name": "krew",
          "type": "uint256"
        },
        {
          "internalType": "uint256",
          "name": "amount",
          "type": "uint256"
        },
        {
          "internalType": "bytes",
          "name": "oracleSignature",
          "type": "bytes"
        }
      ],
      "name": "buyKeys",
      "outputs": [],
      "stateMutability": "payable",
      "type": "function"
    },
    {
      "inputs": [
        {
          "internalType": "uint256",
          "name": "price",
          "type": "uint256"
        },
        {
          "internalType": "bytes",
          "name": "oracleSignature",
          "type": "bytes"
        }
      ],
      "name": "calculateAdditionalTokenOwnerFee",
      "outputs": [
        {
          "internalType": "uint256",
          "name": "",
          "type": "uint256"
        }
      ],
      "stateMutability": "view",
      "type": "function"
    },
    {
      "inputs": [
        {
          "internalType": "uint256",
          "name": "krew",
          "type": "uint256"
        }
      ],
      "name": "claimHolderFee",
      "outputs": [],
      "stateMutability": "nonpayable",
      "type": "function"
    },
    {
      "inputs": [
        {
          "internalType": "uint256",
          "name": "krew",
          "type": "uint256"
        },
        {
          "internalType": "address",
          "name": "holder",
          "type": "address"
        }
      ],
      "name": "claimableHolderFee",
      "outputs": [
        {
          "internalType": "uint256",
          "name": "claimableFee",
          "type": "uint256"
        }
      ],
      "stateMutability": "view",
      "type": "function"
    },
    {
      "inputs": [],
      "name": "createKrew",
      "outputs": [],
      "stateMutability": "nonpayable",
      "type": "function"
    },
    {
      "inputs": [
        {
          "internalType": "uint256",
          "name": "krewId",
          "type": "uint256"
        }
      ],
      "name": "existsKrew",
      "outputs": [
        {
          "internalType": "bool",
          "name": "",
          "type": "bool"
        }
      ],
      "stateMutability": "view",
      "type": "function"
    },
    {
      "inputs": [
        {
          "internalType": "uint256",
          "name": "krew",
          "type": "uint256"
        },
        {
          "internalType": "uint256",
          "name": "amount",
          "type": "uint256"
        }
      ],
      "name": "getBuyPrice",
      "outputs": [
        {
          "internalType": "uint256",
          "name": "",
          "type": "uint256"
        }
      ],
      "stateMutability": "view",
      "type": "function"
    },
    {
      "inputs": [
        {
          "internalType": "uint256",
          "name": "krew",
          "type": "uint256"
        },
        {
          "internalType": "uint256",
          "name": "amount",
          "type": "uint256"
        }
      ],
      "name": "getBuyPriceAfterFee",
      "outputs": [
        {
          "internalType": "uint256",
          "name": "",
          "type": "uint256"
        }
      ],
      "stateMutability": "view",
      "type": "function"
    },
    {
      "inputs": [
        {
          "internalType": "uint256",
          "name": "supply",
          "type": "uint256"
        },
        {
          "internalType": "uint256",
          "name": "amount",
          "type": "uint256"
        }
      ],
      "name": "getPrice",
      "outputs": [
        {
          "internalType": "uint256",
          "name": "",
          "type": "uint256"
        }
      ],
      "stateMutability": "pure",
      "type": "function"
    },
    {
      "inputs": [
        {
          "internalType": "uint256",
          "name": "krew",
          "type": "uint256"
        },
        {
          "internalType": "uint256",
          "name": "amount",
          "type": "uint256"
        }
      ],
      "name": "getSellPrice",
      "outputs": [
        {
          "internalType": "uint256",
          "name": "",
          "type": "uint256"
        }
      ],
      "stateMutability": "view",
      "type": "function"
    },
    {
      "inputs": [
        {
          "internalType": "uint256",
          "name": "krew",
          "type": "uint256"
        },
        {
          "internalType": "uint256",
          "name": "amount",
          "type": "uint256"
        }
      ],
      "name": "getSellPriceAfterFee",
      "outputs": [
        {
          "internalType": "uint256",
          "name": "",
          "type": "uint256"
        }
      ],
      "stateMutability": "view",
      "type": "function"
    },
    {
      "inputs": [],
      "name": "holderFeePercent",
      "outputs": [
        {
          "internalType": "uint256",
          "name": "",
          "type": "uint256"
        }
      ],
      "stateMutability": "view",
      "type": "function"
    },
    {
      "inputs": [
        {
          "internalType": "uint256",
          "name": "",
          "type": "uint256"
        },
        {
          "internalType": "address",
          "name": "",
          "type": "address"
        }
      ],
      "name": "holders",
      "outputs": [
        {
          "internalType": "uint256",
          "name": "balance",
          "type": "uint256"
        },
        {
          "internalType": "int256",
          "name": "feeDebt",
          "type": "int256"
        }
      ],
      "stateMutability": "view",
      "type": "function"
    },
    {
      "inputs": [
        {
          "internalType": "address payable",
          "name": "_protocolFeeDestination",
          "type": "address"
        },
        {
          "internalType": "uint256",
          "name": "_protocolFeePercent",
          "type": "uint256"
        },
        {
          "internalType": "uint256",
          "name": "_holderFeePercent",
          "type": "uint256"
        }
      ],
      "name": "initialize",
      "outputs": [],
      "stateMutability": "nonpayable",
      "type": "function"
    },
    {
      "inputs": [
        {
          "internalType": "uint256",
          "name": "",
          "type": "uint256"
        }
      ],
      "name": "krews",
      "outputs": [
        {
          "internalType": "uint256",
          "name": "supply",
          "type": "uint256"
        },
        {
          "internalType": "uint256",
          "name": "accFeePerUnit",
          "type": "uint256"
        }
      ],
      "stateMutability": "view",
      "type": "function"
    },
    {
      "inputs": [],
      "name": "nextKrewId",
      "outputs": [
        {
          "internalType": "uint256",
          "name": "",
          "type": "uint256"
        }
      ],
      "stateMutability": "view",
      "type": "function"
    },
    {
      "inputs": [],
      "name": "oracleAddress",
      "outputs": [
        {
          "internalType": "address",
          "name": "",
          "type": "address"
        }
      ],
      "stateMutability": "view",
      "type": "function"
    },
    {
      "inputs": [],
      "name": "owner",
      "outputs": [
        {
          "internalType": "address",
          "name": "",
          "type": "address"
        }
      ],
      "stateMutability": "view",
      "type": "function"
    },
    {
      "inputs": [],
      "name": "protocolFeeDestination",
      "outputs": [
        {
          "internalType": "address payable",
          "name": "",
          "type": "address"
        }
      ],
      "stateMutability": "view",
      "type": "function"
    },
    {
      "inputs": [],
      "name": "protocolFeePercent",
      "outputs": [
        {
          "internalType": "uint256",
          "name": "",
          "type": "uint256"
        }
      ],
      "stateMutability": "view",
      "type": "function"
    },
    {
      "inputs": [],
      "name": "renounceOwnership",
      "outputs": [],
      "stateMutability": "nonpayable",
      "type": "function"
    },
    {
      "inputs": [
        {
          "internalType": "uint256",
          "name": "krew",
          "type": "uint256"
        },
        {
          "internalType": "uint256",
          "name": "amount",
          "type": "uint256"
        },
        {
          "internalType": "bytes",
          "name": "oracleSignature",
          "type": "bytes"
        }
      ],
      "name": "sellKeys",
      "outputs": [],
      "stateMutability": "nonpayable",
      "type": "function"
    },
    {
      "inputs": [
        {
          "internalType": "uint256",
          "name": "_feePercent",
          "type": "uint256"
        }
      ],
      "name": "setHolderFeePercent",
      "outputs": [],
      "stateMutability": "nonpayable",
      "type": "function"
    },
    {
      "inputs": [
        {
          "internalType": "address",
          "name": "_oracle",
          "type": "address"
        }
      ],
      "name": "setOracleAddress",
      "outputs": [],
      "stateMutability": "nonpayable",
      "type": "function"
    },
    {
      "inputs": [
        {
          "internalType": "address payable",
          "name": "_feeDestination",
          "type": "address"
        }
      ],
      "name": "setProtocolFeeDestination",
      "outputs": [],
      "stateMutability": "nonpayable",
      "type": "function"
    },
    {
      "inputs": [
        {
          "internalType": "uint256",
          "name": "_feePercent",
          "type": "uint256"
        }
      ],
      "name": "setProtocolFeePercent",
      "outputs": [],
      "stateMutability": "nonpayable",
      "type": "function"
    },
    {
      "inputs": [
        {
          "internalType": "address",
          "name": "newOwner",
          "type": "address"
        }
      ],
      "name": "transferOwnership",
      "outputs": [],
      "stateMutability": "nonpayable",
      "type": "function"
    }
  ],
  "bytecode": "0x608060405234801561001057600080fd5b50611dc5806100206000396000f3fe60806040526004361061019c5760003560e01c80639477d85d116100ec578063be3b9f2d1161008a578063cd9c712111610064578063cd9c7121146104bd578063d6e6eb9f146104dd578063f2fde38b146104f3578063fb350a1b1461051357600080fd5b8063be3b9f2d14610467578063c157253d14610487578063c569aec6146104a757600080fd5b8063a4b1835a116100c6578063a4b1835a146103d2578063a89ae4ba14610411578063b1a491e014610431578063b84dd7431461045157600080fd5b80639477d85d14610372578063a10786b014610392578063a4983421146103b257600080fd5b80635a114ff3116101595780637809dea6116101335780637809dea6146102f45780637a1ac61e146103145780638da5cb5b14610334578063936815111461035257600080fd5b80635a114ff31461029f5780635cf4ee91146102bf578063715018a6146102df57600080fd5b8063063a741f146101a15780630f6e81d9146101d4578063422022571461021d57806342e817bf146102345780634c69c00f146102475780634ce7957c14610267575b600080fd5b3480156101ad57600080fd5b506101c16101bc366004611a04565b610552565b6040519081526020015b60405180910390f35b3480156101e057600080fd5b506102086101ef366004611a26565b609c602052600090815260409020805460019091015482565b604080519283526020830191909152016101cb565b34801561022957600080fd5b506102326105cc565b005b610232610242366004611ae2565b610636565b34801561025357600080fd5b50610232610262366004611b47565b61091a565b34801561027357600080fd5b50609754610287906001600160a01b031681565b6040516001600160a01b0390911681526020016101cb565b3480156102ab57600080fd5b506102326102ba366004611ae2565b61096c565b3480156102cb57600080fd5b506101c16102da366004611a04565b610c0b565b3480156102eb57600080fd5b50610232610d22565b34801561030057600080fd5b5061023261030f366004611a26565b610d36565b34801561032057600080fd5b5061023261032f366004611b64565b610e06565b34801561034057600080fd5b506033546001600160a01b0316610287565b34801561035e57600080fd5b506101c161036d366004611b99565b610fd9565b34801561037e57600080fd5b506101c161038d366004611a04565b611060565b34801561039e57600080fd5b506102326103ad366004611b47565b61108b565b3480156103be57600080fd5b506102326103cd366004611a26565b6110dd565b3480156103de57600080fd5b506102086103ed366004611b99565b609d6020908152600092835260408084209091529082529020805460019091015482565b34801561041d57600080fd5b50609a54610287906001600160a01b031681565b34801561043d57600080fd5b506101c161044c366004611bc9565b611121565b34801561045d57600080fd5b506101c1609b5481565b34801561047357600080fd5b50610232610482366004611a26565b61129d565b34801561049357600080fd5b506101c16104a2366004611a04565b6112da565b3480156104b357600080fd5b506101c160995481565b3480156104c957600080fd5b506101c16104d8366004611a04565b6112f3565b3480156104e957600080fd5b506101c160985481565b3480156104ff57600080fd5b5061023261050e366004611b47565b611361565b34801561051f57600080fd5b5061054261052e366004611a26565b6000908152609c6020526040902054151590565b60405190151581526020016101cb565b60008061055f84846112da565b90506000670de0b6b3a76400006098548361057a9190611c26565b6105849190611c3d565b90506000670de0b6b3a76400006099548461059f9190611c26565b6105a99190611c3d565b9050806105b68385611c5f565b6105c09190611c5f565b93505050505b92915050565b609b8054600091826105dd83611c72565b909155506000818152609c60209081526040808320600190819055609d835281842033808652935281842055519293509183917fe80a1ac513c367b1e0f8fb7d4852f043ee635fa37d42944df34be8d5686b61d391a350565b61063e6113d7565b6000838152609c60205260409020546106725760405162461bcd60e51b815260040161066990611c8b565b60405180910390fd5b600061067e84846112da565b9050600061068c8284611121565b9050600081670de0b6b3a7640000609854856106a89190611c26565b6106b29190611c3d565b6106bc9190611ccc565b9050600082670de0b6b3a7640000609954866106d89190611c26565b6106e29190611c3d565b6106ec9190611c5f565b9050806106f98386611c5f565b6107039190611c5f565b34101561075d5760405162461bcd60e51b815260206004820152602260248201527f4b726577436f6d6d756e616c3a20496e73756666696369656e74207061796d656044820152611b9d60f21b6064820152608401610669565b6000878152609c602090815260408083208151808301835281548152600190910154818401528a8452609d83528184203385529092528220805491929091899183916107aa908490611c5f565b90915550506020820151612710906107c2908a611c26565b6107cc9190611c3d565b8160010160008282546107df9190611cdf565b90915550508151889083906107f5908390611c5f565b905250815161080661271085611c26565b6108109190611c3d565b826020018181516108219190611c5f565b9052506000898152609c602090815260409091208351815590830151600190910155609754610859906001600160a01b031685611430565b826108648588611c5f565b61086e9190611c5f565b3411156108a557600083856108838934611ccc565b61088d9190611ccc565b6108979190611ccc565b90506108a33382611430565b505b8151604080518a815260208101899052908101869052606081018590526080810187905260a08101919091526001908a9033907fb8099acc1c84bf6f63b9ed9adcc4a35671c4892f876e1f382d0f8044e15a6d009060c00160405180910390a45050505050506109156001606555565b505050565b610922611550565b609a80546001600160a01b0319166001600160a01b0383169081179091556040517f0adef86c673dfdb102affe9a454acea4a42a305e1feb982b4b2c97da980454a990600090a250565b6109746113d7565b6000838152609c602052604090205461099f5760405162461bcd60e51b815260040161066990611c8b565b60006109ab8484611060565b905060006109b98284611121565b9050600081670de0b6b3a7640000609854856109d59190611c26565b6109df9190611c3d565b6109e99190611ccc565b9050600082670de0b6b3a764000060995486610a059190611c26565b610a0f9190611c3d565b610a199190611c5f565b6000888152609c602090815260408083208151808301835281548152600190910154818401528b8452609d835281842033855290925290912081519293509091610a6561271085611c26565b610a6f9190611c3d565b82602001818151610a809190611c5f565b905250815188908390610a94908390611ccc565b9052506000898152609c6020908152604090912083518155908301516001909101558054881115610b125760405162461bcd60e51b815260206004820152602260248201527f4b726577436f6d6d756e616c3a20496e73756666696369656e742062616c616e604482015261636560f01b6064820152608401610669565b87816000016000828254610b269190611ccc565b9091555050602082015161271090610b3e908a611c26565b610b489190611c3d565b816001016000828254610b5b9190611d07565b909155506000905083610b6e8689611ccc565b610b789190611ccc565b9050610b843382611430565b609754610b9a906001600160a01b031686611430565b8251604080518b8152602081018a9052908101879052606081018690526080810188905260a08101919091526000908b9033907fb8099acc1c84bf6f63b9ed9adcc4a35671c4892f876e1f382d0f8044e15a6d009060c00160405180910390a4505050505050506109156001606555565b6000808315610c66576006610c21600186611ccc565b610c2c906002611c26565b610c37906001611c5f565b85610c43600182611ccc565b610c4d9190611c26565b610c579190611c26565b610c619190611c3d565b610c69565b60005b9050600084158015610c7b5750836001145b610cf057600684610c8d600188611ccc565b610c979190611c5f565b610ca2906002611c26565b610cad906001611c5f565b610cb78688611c5f565b86610cc360018a611ccc565b610ccd9190611c5f565b610cd79190611c26565b610ce19190611c26565b610ceb9190611c3d565b610cf3565b60005b90506000610d018383611ccc565b9050613e80610d1882670de0b6b3a7640000611c26565b6105c09190611c3d565b610d2a611550565b610d3460006115aa565b565b610d3e6113d7565b6000818152609c602090815260408083208151808301835281548152600190910154818401908152858552609d84528285203386529093529083209151825491939161271091610d8d91611c26565b610d979190611c3d565b90506000826001015482610dab9190611d07565b600184018390559050610dbe3382611430565b604051818152859033907f841d6c5238e11a6af9cd83b97e21794b68bde1ed5e5d2733abc5bfc611ce51ca9060200160405180910390a350505050610e036001606555565b50565b600054610100900460ff1615808015610e265750600054600160ff909116105b80610e405750303b158015610e40575060005460ff166001145b610ea35760405162461bcd60e51b815260206004820152602e60248201527f496e697469616c697a61626c653a20636f6e747261637420697320616c72656160448201526d191e481a5b9a5d1a585b1a5e995960921b6064820152608401610669565b6000805460ff191660011790558015610ec6576000805461ff0019166101001790555b610ece6115fc565b610ed661162b565b609780546001600160a01b0319166001600160a01b038616908117909155609884905560998390556040517f72fe3f5fb15c2671900303001fbe3a8adf9df5c76bfd269a9508c8753b9c35c990600090a26040518381527f98d1698e9a7ee55a2ded97de72077c93add26ce8534679021d0e7c44edcb325b9060200160405180910390a16040518281527f1bf7c57da18b4d55c69dc98c3b4c0bdb9fa61b3ac3979937c6e1c8958f1f937a9060200160405180910390a18015610fd3576000805461ff0019169055604051600181527f7f26b83ff96e1f2b6a682f133852f6798a09c465da95921460cefb38474024989060200160405180910390a15b50505050565b6000828152609c602090815260408083208151808301835281548152600191820154818501908152878652609d85528386206001600160a01b038816875285528386208451808601909552805480865293015494840194909452925184916127109161104491611c26565b61104e9190611c3d565b90508160200151816105c09190611d07565b6000828152609c60205260408120546110849061107e908490611ccc565b83610c0b565b9392505050565b611093611550565b609780546001600160a01b0319166001600160a01b0383169081179091556040517f72fe3f5fb15c2671900303001fbe3a8adf9df5c76bfd269a9508c8753b9c35c990600090a250565b6110e5611550565b60988190556040518181527f98d1698e9a7ee55a2ded97de72077c93add26ce8534679021d0e7c44edcb325b906020015b60405180910390a150565b600080600061112f8461165a565b91509150600061119d8684604051602001611154929190918252602082015260400190565b604051602081830303815290604052805190602001207f19457468657265756d205369676e6564204d6573736167653a0a3332000000006000908152601c91909152603c902090565b90508082146111fa5760405162461bcd60e51b815260206004820152602360248201527f4b726577436f6d6d756e616c3a20496e76616c696420646174612070726f766960448201526219195960ea1b6064820152608401610669565b60006112068287611736565b609a549091506001600160a01b038083169116146112755760405162461bcd60e51b815260206004820152602660248201527f4b726577436f6d6d756e616c3a20496e76616c6964206f7261636c65207369676044820152656e617475726560d01b6064820152608401610669565b670de0b6b3a76400006112888589611c26565b6112929190611c3d565b979650505050505050565b6112a5611550565b60998190556040518181527f1bf7c57da18b4d55c69dc98c3b4c0bdb9fa61b3ac3979937c6e1c8958f1f937a90602001611116565b6000828152609c60205260408120546110849083610c0b565b6000806113008484611060565b90506000670de0b6b3a76400006098548361131b9190611c26565b6113259190611c3d565b90506000670de0b6b3a7640000609954846113409190611c26565b61134a9190611c3d565b9050806113578385611ccc565b6105c09190611ccc565b611369611550565b6001600160a01b0381166113ce5760405162461bcd60e51b815260206004820152602660248201527f4f776e61626c653a206e6577206f776e657220697320746865207a65726f206160448201526564647265737360d01b6064820152608401610669565b610e03816115aa565b6002606554036114295760405162461bcd60e51b815260206004820152601f60248201527f5265656e7472616e637947756172643a207265656e7472616e742063616c6c006044820152606401610669565b6002606555565b804710156114805760405162461bcd60e51b815260206004820152601d60248201527f416464726573733a20696e73756666696369656e742062616c616e63650000006044820152606401610669565b6000826001600160a01b03168260405160006040518083038185875af1925050503d80600081146114cd576040519150601f19603f3d011682016040523d82523d6000602084013e6114d2565b606091505b50509050806109155760405162461bcd60e51b815260206004820152603a60248201527f416464726573733a20756e61626c6520746f2073656e642076616c75652c207260448201527f6563697069656e74206d617920686176652072657665727465640000000000006064820152608401610669565b6001606555565b6033546001600160a01b03163314610d345760405162461bcd60e51b815260206004820181905260248201527f4f776e61626c653a2063616c6c6572206973206e6f7420746865206f776e65726044820152606401610669565b603380546001600160a01b038381166001600160a01b0319831681179093556040519116919082907f8be0079c531659141344cd1fd0a4f28419497f9722a3daafe3b4186f6b6457e090600090a35050565b600054610100900460ff166116235760405162461bcd60e51b815260040161066990611d2e565b610d3461175a565b600054610100900460ff166116525760405162461bcd60e51b815260040161066990611d2e565b610d3461178a565b60008082516060146116bd5760405162461bcd60e51b815260206004820152602660248201527f4b726577436f6d6d756e616c3a20496e76616c6964207369676e6174757265206044820152650d8cadccee8d60d31b6064820152608401610669565b50506020810151604082015181670de0b6b3a76400008111156117305760405162461bcd60e51b815260206004820152602560248201527f4b726577436f6d6d756e616c3a2046656520726174696f206f7574206f6620626044820152646f756e647360d81b6064820152608401610669565b50915091565b600080600061174585856117b1565b91509150611752816117f6565b509392505050565b600054610100900460ff166117815760405162461bcd60e51b815260040161066990611d2e565b610d34336115aa565b600054610100900460ff166115495760405162461bcd60e51b815260040161066990611d2e565b60008082516041036117e75760208301516040840151606085015160001a6117db87828585611940565b945094505050506117ef565b506000905060025b9250929050565b600081600481111561180a5761180a611d79565b036118125750565b600181600481111561182657611826611d79565b036118735760405162461bcd60e51b815260206004820152601860248201527f45434453413a20696e76616c6964207369676e617475726500000000000000006044820152606401610669565b600281600481111561188757611887611d79565b036118d45760405162461bcd60e51b815260206004820152601f60248201527f45434453413a20696e76616c6964207369676e6174757265206c656e677468006044820152606401610669565b60038160048111156118e8576118e8611d79565b03610e035760405162461bcd60e51b815260206004820152602260248201527f45434453413a20696e76616c6964207369676e6174757265202773272076616c604482015261756560f01b6064820152608401610669565b6000807f7fffffffffffffffffffffffffffffff5d576e7357a4501ddfe92f46681b20a083111561197757506000905060036119fb565b6040805160008082526020820180845289905260ff881692820192909252606081018690526080810185905260019060a0016020604051602081039080840390855afa1580156119cb573d6000803e3d6000fd5b5050604051601f1901519150506001600160a01b0381166119f4576000600192509250506119fb565b9150600090505b94509492505050565b60008060408385031215611a1757600080fd5b50508035926020909101359150565b600060208284031215611a3857600080fd5b5035919050565b634e487b7160e01b600052604160045260246000fd5b600082601f830112611a6657600080fd5b813567ffffffffffffffff80821115611a8157611a81611a3f565b604051601f8301601f19908116603f01168101908282118183101715611aa957611aa9611a3f565b81604052838152866020858801011115611ac257600080fd5b836020870160208301376000602085830101528094505050505092915050565b600080600060608486031215611af757600080fd5b8335925060208401359150604084013567ffffffffffffffff811115611b1c57600080fd5b611b2886828701611a55565b9150509250925092565b6001600160a01b0381168114610e0357600080fd5b600060208284031215611b5957600080fd5b813561108481611b32565b600080600060608486031215611b7957600080fd5b8335611b8481611b32565b95602085013595506040909401359392505050565b60008060408385031215611bac57600080fd5b823591506020830135611bbe81611b32565b809150509250929050565b60008060408385031215611bdc57600080fd5b82359150602083013567ffffffffffffffff811115611bfa57600080fd5b611c0685828601611a55565b9150509250929050565b634e487b7160e01b600052601160045260246000fd5b80820281158282048414176105c6576105c6611c10565b600082611c5a57634e487b7160e01b600052601260045260246000fd5b500490565b808201808211156105c6576105c6611c10565b600060018201611c8457611c84611c10565b5060010190565b60208082526021908201527f4b726577436f6d6d756e616c3a204b72657720646f6573206e6f7420657869736040820152601d60fa1b606082015260800190565b818103818111156105c6576105c6611c10565b8082018281126000831280158216821582161715611cff57611cff611c10565b505092915050565b8181036000831280158383131683831282161715611d2757611d27611c10565b5092915050565b6020808252602b908201527f496e697469616c697a61626c653a20636f6e7472616374206973206e6f74206960408201526a6e697469616c697a696e6760a81b606082015260800190565b634e487b7160e01b600052602160045260246000fdfea264697066735822122033fe5d2080ea496f79c2106b34cf51b8ee560c128368b4e9e6985d412c44db8f64736f6c63430008140033",
  "linkReferences": {},
  "deployedLinkReferences": {}
}