{
  "_format": "hh-sol-artifact-1",
  "contractName": "KrewCommunal",
  "sourceName": "contracts/KrewCommunal.sol",
  "abi": [
    {
      "anonymous": false,
      "inputs": [
        {
          "indexed": true,
          "internalType": "address",
          "name": "holder",
          "type": "address"
        },
        {
          "indexed": true,
          "internalType": "uint256",
          "name": "krew",
          "type": "uint256"
        },
        {
          "indexed": false,
          "internalType": "uint256",
          "name": "fee",
          "type": "uint256"
        }
      ],
      "name": "ClaimHolderFee",
      "type": "event"
    },
    {
      "anonymous": false,
      "inputs": [
        {
          "indexed": false,
          "internalType": "uint8",
          "name": "version",
          "type": "uint8"
        }
      ],
      "name": "Initialized",
      "type": "event"
    },
    {
      "anonymous": false,
      "inputs": [
        {
          "indexed": true,
          "internalType": "uint256",
          "name": "krewId",
          "type": "uint256"
        },
        {
          "indexed": true,
          "internalType": "address",
          "name": "creator",
          "type": "address"
        }
      ],
      "name": "KrewCreated",
      "type": "event"
    },
    {
      "anonymous": false,
      "inputs": [
        {
          "indexed": true,
          "internalType": "address",
          "name": "previousOwner",
          "type": "address"
        },
        {
          "indexed": true,
          "internalType": "address",
          "name": "newOwner",
          "type": "address"
        }
      ],
      "name": "OwnershipTransferred",
      "type": "event"
    },
    {
      "anonymous": false,
      "inputs": [
        {
          "indexed": false,
          "internalType": "uint256",
          "name": "percent",
          "type": "uint256"
        }
      ],
      "name": "SetHolderFeePercent",
      "type": "event"
    },
    {
      "anonymous": false,
      "inputs": [
        {
          "indexed": true,
          "internalType": "address",
          "name": "oracle",
          "type": "address"
        }
      ],
      "name": "SetOracleAddress",
      "type": "event"
    },
    {
      "anonymous": false,
      "inputs": [
        {
          "indexed": true,
          "internalType": "address",
          "name": "destination",
          "type": "address"
        }
      ],
      "name": "SetProtocolFeeDestination",
      "type": "event"
    },
    {
      "anonymous": false,
      "inputs": [
        {
          "indexed": false,
          "internalType": "uint256",
          "name": "percent",
          "type": "uint256"
        }
      ],
      "name": "SetProtocolFeePercent",
      "type": "event"
    },
    {
      "anonymous": false,
      "inputs": [
        {
          "indexed": true,
          "internalType": "address",
          "name": "trader",
          "type": "address"
        },
        {
          "indexed": true,
          "internalType": "uint256",
          "name": "krew",
          "type": "uint256"
        },
        {
          "indexed": true,
          "internalType": "bool",
          "name": "isBuy",
          "type": "bool"
        },
        {
          "indexed": false,
          "internalType": "uint256",
          "name": "amount",
          "type": "uint256"
        },
        {
          "indexed": false,
          "internalType": "uint256",
          "name": "price",
          "type": "uint256"
        },
        {
          "indexed": false,
          "internalType": "uint256",
          "name": "protocolFee",
          "type": "uint256"
        },
        {
          "indexed": false,
          "internalType": "uint256",
          "name": "holderFee",
          "type": "uint256"
        },
        {
          "indexed": false,
          "internalType": "uint256",
          "name": "additionalFee",
          "type": "uint256"
        },
        {
          "indexed": false,
          "internalType": "uint256",
          "name": "supply",
          "type": "uint256"
        }
      ],
      "name": "Trade",
      "type": "event"
    },
    {
      "inputs": [
        {
          "internalType": "uint256",
          "name": "krew",
          "type": "uint256"
        },
        {
          "internalType": "uint256",
          "name": "amount",
          "type": "uint256"
        },
        {
          "internalType": "bytes",
          "name": "oracleSignature",
          "type": "bytes"
        }
      ],
      "name": "buyKey",
      "outputs": [],
      "stateMutability": "payable",
      "type": "function"
    },
    {
      "inputs": [
        {
          "internalType": "uint256",
          "name": "price",
          "type": "uint256"
        },
        {
          "internalType": "bytes",
          "name": "oracleSignature",
          "type": "bytes"
        }
      ],
      "name": "calculateAdditionalTokenOwnerFee",
      "outputs": [
        {
          "internalType": "uint256",
          "name": "",
          "type": "uint256"
        }
      ],
      "stateMutability": "view",
      "type": "function"
    },
    {
      "inputs": [
        {
          "internalType": "uint256",
          "name": "krew",
          "type": "uint256"
        }
      ],
      "name": "claimHolderFee",
      "outputs": [],
      "stateMutability": "nonpayable",
      "type": "function"
    },
    {
      "inputs": [
        {
          "internalType": "uint256",
          "name": "krew",
          "type": "uint256"
        },
        {
          "internalType": "address",
          "name": "holder",
          "type": "address"
        }
      ],
      "name": "claimableHolderFee",
      "outputs": [
        {
          "internalType": "uint256",
          "name": "claimableFee",
          "type": "uint256"
        }
      ],
      "stateMutability": "view",
      "type": "function"
    },
    {
      "inputs": [],
      "name": "createKrew",
      "outputs": [],
      "stateMutability": "nonpayable",
      "type": "function"
    },
    {
      "inputs": [
        {
          "internalType": "uint256",
          "name": "krewId",
          "type": "uint256"
        }
      ],
      "name": "existsKrew",
      "outputs": [
        {
          "internalType": "bool",
          "name": "",
          "type": "bool"
        }
      ],
      "stateMutability": "view",
      "type": "function"
    },
    {
      "inputs": [
        {
          "internalType": "uint256",
          "name": "krew",
          "type": "uint256"
        },
        {
          "internalType": "uint256",
          "name": "amount",
          "type": "uint256"
        }
      ],
      "name": "getBuyPrice",
      "outputs": [
        {
          "internalType": "uint256",
          "name": "",
          "type": "uint256"
        }
      ],
      "stateMutability": "view",
      "type": "function"
    },
    {
      "inputs": [
        {
          "internalType": "uint256",
          "name": "krew",
          "type": "uint256"
        },
        {
          "internalType": "uint256",
          "name": "amount",
          "type": "uint256"
        }
      ],
      "name": "getBuyPriceAfterFee",
      "outputs": [
        {
          "internalType": "uint256",
          "name": "",
          "type": "uint256"
        }
      ],
      "stateMutability": "view",
      "type": "function"
    },
    {
      "inputs": [
        {
          "internalType": "uint256",
          "name": "supply",
          "type": "uint256"
        },
        {
          "internalType": "uint256",
          "name": "amount",
          "type": "uint256"
        }
      ],
      "name": "getPrice",
      "outputs": [
        {
          "internalType": "uint256",
          "name": "",
          "type": "uint256"
        }
      ],
      "stateMutability": "pure",
      "type": "function"
    },
    {
      "inputs": [
        {
          "internalType": "uint256",
          "name": "krew",
          "type": "uint256"
        },
        {
          "internalType": "uint256",
          "name": "amount",
          "type": "uint256"
        }
      ],
      "name": "getSellPrice",
      "outputs": [
        {
          "internalType": "uint256",
          "name": "",
          "type": "uint256"
        }
      ],
      "stateMutability": "view",
      "type": "function"
    },
    {
      "inputs": [
        {
          "internalType": "uint256",
          "name": "krew",
          "type": "uint256"
        },
        {
          "internalType": "uint256",
          "name": "amount",
          "type": "uint256"
        }
      ],
      "name": "getSellPriceAfterFee",
      "outputs": [
        {
          "internalType": "uint256",
          "name": "",
          "type": "uint256"
        }
      ],
      "stateMutability": "view",
      "type": "function"
    },
    {
      "inputs": [],
      "name": "holderFeePercent",
      "outputs": [
        {
          "internalType": "uint256",
          "name": "",
          "type": "uint256"
        }
      ],
      "stateMutability": "view",
      "type": "function"
    },
    {
      "inputs": [
        {
          "internalType": "uint256",
          "name": "",
          "type": "uint256"
        },
        {
          "internalType": "address",
          "name": "",
          "type": "address"
        }
      ],
      "name": "holders",
      "outputs": [
        {
          "internalType": "uint256",
          "name": "balance",
          "type": "uint256"
        },
        {
          "internalType": "int256",
          "name": "feeDebt",
          "type": "int256"
        }
      ],
      "stateMutability": "view",
      "type": "function"
    },
    {
      "inputs": [
        {
          "internalType": "address payable",
          "name": "_protocolFeeDestination",
          "type": "address"
        },
        {
          "internalType": "uint256",
          "name": "_protocolFeePercent",
          "type": "uint256"
        },
        {
          "internalType": "uint256",
          "name": "_holderFeePercent",
          "type": "uint256"
        }
      ],
      "name": "initialize",
      "outputs": [],
      "stateMutability": "nonpayable",
      "type": "function"
    },
    {
      "inputs": [
        {
          "internalType": "uint256",
          "name": "",
          "type": "uint256"
        }
      ],
      "name": "krews",
      "outputs": [
        {
          "internalType": "uint256",
          "name": "supply",
          "type": "uint256"
        },
        {
          "internalType": "uint256",
          "name": "accFeePerUnit",
          "type": "uint256"
        }
      ],
      "stateMutability": "view",
      "type": "function"
    },
    {
      "inputs": [],
      "name": "nextKrewId",
      "outputs": [
        {
          "internalType": "uint256",
          "name": "",
          "type": "uint256"
        }
      ],
      "stateMutability": "view",
      "type": "function"
    },
    {
      "inputs": [],
      "name": "oracleAddress",
      "outputs": [
        {
          "internalType": "address",
          "name": "",
          "type": "address"
        }
      ],
      "stateMutability": "view",
      "type": "function"
    },
    {
      "inputs": [],
      "name": "owner",
      "outputs": [
        {
          "internalType": "address",
          "name": "",
          "type": "address"
        }
      ],
      "stateMutability": "view",
      "type": "function"
    },
    {
      "inputs": [],
      "name": "protocolFeeDestination",
      "outputs": [
        {
          "internalType": "address payable",
          "name": "",
          "type": "address"
        }
      ],
      "stateMutability": "view",
      "type": "function"
    },
    {
      "inputs": [],
      "name": "protocolFeePercent",
      "outputs": [
        {
          "internalType": "uint256",
          "name": "",
          "type": "uint256"
        }
      ],
      "stateMutability": "view",
      "type": "function"
    },
    {
      "inputs": [],
      "name": "renounceOwnership",
      "outputs": [],
      "stateMutability": "nonpayable",
      "type": "function"
    },
    {
      "inputs": [
        {
          "internalType": "uint256",
          "name": "krew",
          "type": "uint256"
        },
        {
          "internalType": "uint256",
          "name": "amount",
          "type": "uint256"
        },
        {
          "internalType": "bytes",
          "name": "oracleSignature",
          "type": "bytes"
        }
      ],
      "name": "sellKey",
      "outputs": [],
      "stateMutability": "nonpayable",
      "type": "function"
    },
    {
      "inputs": [
        {
          "internalType": "uint256",
          "name": "_feePercent",
          "type": "uint256"
        }
      ],
      "name": "setHolderFeePercent",
      "outputs": [],
      "stateMutability": "nonpayable",
      "type": "function"
    },
    {
      "inputs": [
        {
          "internalType": "address",
          "name": "_oracle",
          "type": "address"
        }
      ],
      "name": "setOracleAddress",
      "outputs": [],
      "stateMutability": "nonpayable",
      "type": "function"
    },
    {
      "inputs": [
        {
          "internalType": "address payable",
          "name": "_feeDestination",
          "type": "address"
        }
      ],
      "name": "setProtocolFeeDestination",
      "outputs": [],
      "stateMutability": "nonpayable",
      "type": "function"
    },
    {
      "inputs": [
        {
          "internalType": "uint256",
          "name": "_feePercent",
          "type": "uint256"
        }
      ],
      "name": "setProtocolFeePercent",
      "outputs": [],
      "stateMutability": "nonpayable",
      "type": "function"
    },
    {
      "inputs": [
        {
          "internalType": "address",
          "name": "newOwner",
          "type": "address"
        }
      ],
      "name": "transferOwnership",
      "outputs": [],
      "stateMutability": "nonpayable",
      "type": "function"
    }
  ],
  "bytecode": "0x608060405234801561001057600080fd5b50611dc1806100206000396000f3fe60806040526004361061019c5760003560e01c8063a4983421116100ec578063c157253d1161008a578063d6e6eb9f11610064578063d6e6eb9f146104ca578063e89c38e0146104e0578063f2fde38b146104f3578063fb350a1b1461051357600080fd5b8063c157253d14610474578063c569aec614610494578063cd9c7121146104aa57600080fd5b8063b1a491e0116100c6578063b1a491e0146103fe578063b84dd7431461041e578063bbfcada514610434578063be3b9f2d1461045457600080fd5b8063a49834211461037f578063a4b1835a1461039f578063a89ae4ba146103de57600080fd5b8063715018a6116101595780638da5cb5b116101335780638da5cb5b14610301578063936815111461031f5780639477d85d1461033f578063a10786b01461035f57600080fd5b8063715018a6146102ac5780637809dea6146102c15780637a1ac61e146102e157600080fd5b8063063a741f146101a15780630f6e81d9146101d4578063422022571461021d5780634c69c00f146102345780634ce7957c146102545780635cf4ee911461028c575b600080fd5b3480156101ad57600080fd5b506101c16101bc366004611a00565b610552565b6040519081526020015b60405180910390f35b3480156101e057600080fd5b506102086101ef366004611a22565b609c602052600090815260409020805460019091015482565b604080519283526020830191909152016101cb565b34801561022957600080fd5b506102326105cc565b005b34801561024057600080fd5b5061023261024f366004611a50565b610636565b34801561026057600080fd5b50609754610274906001600160a01b031681565b6040516001600160a01b0390911681526020016101cb565b34801561029857600080fd5b506101c16102a7366004611a00565b610688565b3480156102b857600080fd5b5061023261079f565b3480156102cd57600080fd5b506102326102dc366004611a22565b6107b3565b3480156102ed57600080fd5b506102326102fc366004611a6d565b610883565b34801561030d57600080fd5b506033546001600160a01b0316610274565b34801561032b57600080fd5b506101c161033a366004611aa2565b610a5b565b34801561034b57600080fd5b506101c161035a366004611a00565b610ae2565b34801561036b57600080fd5b5061023261037a366004611a50565b610b0d565b34801561038b57600080fd5b5061023261039a366004611a22565b610b5f565b3480156103ab57600080fd5b506102086103ba366004611aa2565b609d6020908152600092835260408084209091529082529020805460019091015482565b3480156103ea57600080fd5b50609a54610274906001600160a01b031681565b34801561040a57600080fd5b506101c1610419366004611b75565b610ba3565b34801561042a57600080fd5b506101c1609b5481565b34801561044057600080fd5b5061023261044f366004611bbc565b610d1f565b34801561046057600080fd5b5061023261046f366004611a22565b610fc3565b34801561048057600080fd5b506101c161048f366004611a00565b611000565b3480156104a057600080fd5b506101c160995481565b3480156104b657600080fd5b506101c16104c5366004611a00565b611019565b3480156104d657600080fd5b506101c160985481565b6102326104ee366004611bbc565b611087565b3480156104ff57600080fd5b5061023261050e366004611a50565b61135d565b34801561051f57600080fd5b5061054261052e366004611a22565b6000908152609c6020526040902054151590565b60405190151581526020016101cb565b60008061055f8484611000565b90506000670de0b6b3a76400006098548361057a9190611c22565b6105849190611c39565b90506000670de0b6b3a76400006099548461059f9190611c22565b6105a99190611c39565b9050806105b68385611c5b565b6105c09190611c5b565b93505050505b92915050565b609b8054600091826105dd83611c6e565b909155506000818152609c60209081526040808320600190819055609d835281842033808652935281842055519293509183917fe80a1ac513c367b1e0f8fb7d4852f043ee635fa37d42944df34be8d5686b61d391a350565b61063e6113d3565b609a80546001600160a01b0319166001600160a01b0383169081179091556040517f0adef86c673dfdb102affe9a454acea4a42a305e1feb982b4b2c97da980454a990600090a250565b60008083156106e357600661069e600186611c87565b6106a9906002611c22565b6106b4906001611c5b565b856106c0600182611c87565b6106ca9190611c22565b6106d49190611c22565b6106de9190611c39565b6106e6565b60005b90506000841580156106f85750836001145b61076d5760068461070a600188611c87565b6107149190611c5b565b61071f906002611c22565b61072a906001611c5b565b6107348688611c5b565b8661074060018a611c87565b61074a9190611c5b565b6107549190611c22565b61075e9190611c22565b6107689190611c39565b610770565b60005b9050600061077e8383611c87565b9050613e8061079582670de0b6b3a7640000611c22565b6105c09190611c39565b6107a76113d3565b6107b1600061142d565b565b6107bb61147f565b6000818152609c602090815260408083208151808301835281548152600190910154818401908152858552609d8452828520338652909352908320915182549193916127109161080a91611c22565b6108149190611c39565b905060008260010154826108289190611c9a565b60018401839055905061083b33826114d8565b604051818152859033907f841d6c5238e11a6af9cd83b97e21794b68bde1ed5e5d2733abc5bfc611ce51ca9060200160405180910390a3505050506108806001606555565b50565b600054610100900460ff16158080156108a35750600054600160ff909116105b806108bd5750303b1580156108bd575060005460ff166001145b6109255760405162461bcd60e51b815260206004820152602e60248201527f496e697469616c697a61626c653a20636f6e747261637420697320616c72656160448201526d191e481a5b9a5d1a585b1a5e995960921b60648201526084015b60405180910390fd5b6000805460ff191660011790558015610948576000805461ff0019166101001790555b6109506115f8565b610958611627565b609780546001600160a01b0319166001600160a01b038616908117909155609884905560998390556040517f72fe3f5fb15c2671900303001fbe3a8adf9df5c76bfd269a9508c8753b9c35c990600090a26040518381527f98d1698e9a7ee55a2ded97de72077c93add26ce8534679021d0e7c44edcb325b9060200160405180910390a16040518281527f1bf7c57da18b4d55c69dc98c3b4c0bdb9fa61b3ac3979937c6e1c8958f1f937a9060200160405180910390a18015610a55576000805461ff0019169055604051600181527f7f26b83ff96e1f2b6a682f133852f6798a09c465da95921460cefb38474024989060200160405180910390a15b50505050565b6000828152609c602090815260408083208151808301835281548152600191820154818501908152878652609d85528386206001600160a01b0388168752855283862084518086019095528054808652930154948401949094529251849161271091610ac691611c22565b610ad09190611c39565b90508160200151816105c09190611c9a565b6000828152609c6020526040812054610b0690610b00908490611c87565b83610688565b9392505050565b610b156113d3565b609780546001600160a01b0319166001600160a01b0383169081179091556040517f72fe3f5fb15c2671900303001fbe3a8adf9df5c76bfd269a9508c8753b9c35c990600090a250565b610b676113d3565b60988190556040518181527f98d1698e9a7ee55a2ded97de72077c93add26ce8534679021d0e7c44edcb325b906020015b60405180910390a150565b6000806000610bb184611656565b915091506000610c1f8684604051602001610bd6929190918252602082015260400190565b604051602081830303815290604052805190602001207f19457468657265756d205369676e6564204d6573736167653a0a3332000000006000908152601c91909152603c902090565b9050808214610c7c5760405162461bcd60e51b815260206004820152602360248201527f4b726577436f6d6d756e616c3a20496e76616c696420646174612070726f766960448201526219195960ea1b606482015260840161091c565b6000610c888287611732565b609a549091506001600160a01b03808316911614610cf75760405162461bcd60e51b815260206004820152602660248201527f4b726577436f6d6d756e616c3a20496e76616c6964206f7261636c65207369676044820152656e617475726560d01b606482015260840161091c565b670de0b6b3a7640000610d0a8589611c22565b610d149190611c39565b979650505050505050565b610d2761147f565b6000838152609c6020526040902054610d525760405162461bcd60e51b815260040161091c90611cc1565b6000610d5e8484610ae2565b90506000610d6c8284610ba3565b9050600081670de0b6b3a764000060985485610d889190611c22565b610d929190611c39565b610d9c9190611c87565b9050600082670de0b6b3a764000060995486610db89190611c22565b610dc29190611c39565b610dcc9190611c5b565b6000888152609c602090815260408083208151808301835281548152600190910154818401528b8452609d835281842033855290925290912081519293509091610e1861271085611c22565b610e229190611c39565b82602001818151610e339190611c5b565b905250815188908390610e47908390611c87565b9052506000898152609c6020908152604090912083518155908301516001909101558054881115610ec55760405162461bcd60e51b815260206004820152602260248201527f4b726577436f6d6d756e616c3a20496e73756666696369656e742062616c616e604482015261636560f01b606482015260840161091c565b87816000016000828254610ed99190611c87565b9091555050602082015161271090610ef1908a611c22565b610efb9190611c39565b816001016000828254610f0e9190611c9a565b909155506000905083610f218689611c87565b610f2b9190611c87565b9050610f3733826114d8565b609754610f4d906001600160a01b0316866114d8565b8251604080518b8152602081018a9052908101879052606081018690526080810188905260a08101919091526000908b9033907fb8099acc1c84bf6f63b9ed9adcc4a35671c4892f876e1f382d0f8044e15a6d009060c00160405180910390a450505050505050610fbe6001606555565b505050565b610fcb6113d3565b60998190556040518181527f1bf7c57da18b4d55c69dc98c3b4c0bdb9fa61b3ac3979937c6e1c8958f1f937a90602001610b98565b6000828152609c6020526040812054610b069083610688565b6000806110268484610ae2565b90506000670de0b6b3a7640000609854836110419190611c22565b61104b9190611c39565b90506000670de0b6b3a7640000609954846110669190611c22565b6110709190611c39565b90508061107d8385611c87565b6105c09190611c87565b61108f61147f565b6000838152609c60205260409020546110ba5760405162461bcd60e51b815260040161091c90611cc1565b60006110c68484611000565b905060006110d48284610ba3565b9050600081670de0b6b3a7640000609854856110f09190611c22565b6110fa9190611c39565b6111049190611c87565b9050600082670de0b6b3a7640000609954866111209190611c22565b61112a9190611c39565b6111349190611c5b565b9050806111418386611c5b565b61114b9190611c5b565b3410156111a55760405162461bcd60e51b815260206004820152602260248201527f4b726577436f6d6d756e616c3a20496e73756666696369656e74207061796d656044820152611b9d60f21b606482015260840161091c565b6000878152609c602090815260408083208151808301835281548152600190910154818401528a8452609d83528184203385529092528220805491929091899183916111f2908490611c5b565b909155505060208201516127109061120a908a611c22565b6112149190611c39565b8160010160008282546112279190611d02565b909155505081518890839061123d908390611c5b565b905250815161124e61271085611c22565b6112589190611c39565b826020018181516112699190611c5b565b9052506000898152609c6020908152604090912083518155908301516001909101556097546112a1906001600160a01b0316856114d8565b826112ac8588611c5b565b6112b69190611c5b565b3411156112ed57600083856112cb8934611c87565b6112d59190611c87565b6112df9190611c87565b90506112eb33826114d8565b505b8151604080518a815260208101899052908101869052606081018590526080810187905260a08101919091526001908a9033907fb8099acc1c84bf6f63b9ed9adcc4a35671c4892f876e1f382d0f8044e15a6d009060c00160405180910390a4505050505050610fbe6001606555565b6113656113d3565b6001600160a01b0381166113ca5760405162461bcd60e51b815260206004820152602660248201527f4f776e61626c653a206e6577206f776e657220697320746865207a65726f206160448201526564647265737360d01b606482015260840161091c565b6108808161142d565b6033546001600160a01b031633146107b15760405162461bcd60e51b815260206004820181905260248201527f4f776e61626c653a2063616c6c6572206973206e6f7420746865206f776e6572604482015260640161091c565b603380546001600160a01b038381166001600160a01b0319831681179093556040519116919082907f8be0079c531659141344cd1fd0a4f28419497f9722a3daafe3b4186f6b6457e090600090a35050565b6002606554036114d15760405162461bcd60e51b815260206004820152601f60248201527f5265656e7472616e637947756172643a207265656e7472616e742063616c6c00604482015260640161091c565b6002606555565b804710156115285760405162461bcd60e51b815260206004820152601d60248201527f416464726573733a20696e73756666696369656e742062616c616e6365000000604482015260640161091c565b6000826001600160a01b03168260405160006040518083038185875af1925050503d8060008114611575576040519150601f19603f3d011682016040523d82523d6000602084013e61157a565b606091505b5050905080610fbe5760405162461bcd60e51b815260206004820152603a60248201527f416464726573733a20756e61626c6520746f2073656e642076616c75652c207260448201527f6563697069656e74206d61792068617665207265766572746564000000000000606482015260840161091c565b6001606555565b600054610100900460ff1661161f5760405162461bcd60e51b815260040161091c90611d2a565b6107b1611756565b600054610100900460ff1661164e5760405162461bcd60e51b815260040161091c90611d2a565b6107b1611786565b60008082516060146116b95760405162461bcd60e51b815260206004820152602660248201527f4b726577436f6d6d756e616c3a20496e76616c6964207369676e6174757265206044820152650d8cadccee8d60d31b606482015260840161091c565b50506020810151604082015181670de0b6b3a764000081111561172c5760405162461bcd60e51b815260206004820152602560248201527f4b726577436f6d6d756e616c3a2046656520726174696f206f7574206f6620626044820152646f756e647360d81b606482015260840161091c565b50915091565b600080600061174185856117ad565b9150915061174e816117f2565b509392505050565b600054610100900460ff1661177d5760405162461bcd60e51b815260040161091c90611d2a565b6107b13361142d565b600054610100900460ff166115f15760405162461bcd60e51b815260040161091c90611d2a565b60008082516041036117e35760208301516040840151606085015160001a6117d78782858561193c565b945094505050506117eb565b506000905060025b9250929050565b600081600481111561180657611806611d75565b0361180e5750565b600181600481111561182257611822611d75565b0361186f5760405162461bcd60e51b815260206004820152601860248201527f45434453413a20696e76616c6964207369676e61747572650000000000000000604482015260640161091c565b600281600481111561188357611883611d75565b036118d05760405162461bcd60e51b815260206004820152601f60248201527f45434453413a20696e76616c6964207369676e6174757265206c656e67746800604482015260640161091c565b60038160048111156118e4576118e4611d75565b036108805760405162461bcd60e51b815260206004820152602260248201527f45434453413a20696e76616c6964207369676e6174757265202773272076616c604482015261756560f01b606482015260840161091c565b6000807f7fffffffffffffffffffffffffffffff5d576e7357a4501ddfe92f46681b20a083111561197357506000905060036119f7565b6040805160008082526020820180845289905260ff881692820192909252606081018690526080810185905260019060a0016020604051602081039080840390855afa1580156119c7573d6000803e3d6000fd5b5050604051601f1901519150506001600160a01b0381166119f0576000600192509250506119f7565b9150600090505b94509492505050565b60008060408385031215611a1357600080fd5b50508035926020909101359150565b600060208284031215611a3457600080fd5b5035919050565b6001600160a01b038116811461088057600080fd5b600060208284031215611a6257600080fd5b8135610b0681611a3b565b600080600060608486031215611a8257600080fd5b8335611a8d81611a3b565b95602085013595506040909401359392505050565b60008060408385031215611ab557600080fd5b823591506020830135611ac781611a3b565b809150509250929050565b634e487b7160e01b600052604160045260246000fd5b600082601f830112611af957600080fd5b813567ffffffffffffffff80821115611b1457611b14611ad2565b604051601f8301601f19908116603f01168101908282118183101715611b3c57611b3c611ad2565b81604052838152866020858801011115611b5557600080fd5b836020870160208301376000602085830101528094505050505092915050565b60008060408385031215611b8857600080fd5b82359150602083013567ffffffffffffffff811115611ba657600080fd5b611bb285828601611ae8565b9150509250929050565b600080600060608486031215611bd157600080fd5b8335925060208401359150604084013567ffffffffffffffff811115611bf657600080fd5b611c0286828701611ae8565b9150509250925092565b634e487b7160e01b600052601160045260246000fd5b80820281158282048414176105c6576105c6611c0c565b600082611c5657634e487b7160e01b600052601260045260246000fd5b500490565b808201808211156105c6576105c6611c0c565b600060018201611c8057611c80611c0c565b5060010190565b818103818111156105c6576105c6611c0c565b8181036000831280158383131683831282161715611cba57611cba611c0c565b5092915050565b60208082526021908201527f4b726577436f6d6d756e616c3a204b72657720646f6573206e6f7420657869736040820152601d60fa1b606082015260800190565b8082018281126000831280158216821582161715611d2257611d22611c0c565b505092915050565b6020808252602b908201527f496e697469616c697a61626c653a20636f6e7472616374206973206e6f74206960408201526a6e697469616c697a696e6760a81b606082015260800190565b634e487b7160e01b600052602160045260246000fdfea264697066735822122001dc87e3009fedce99111cd848b3db3f4ad5ad1a3156bd66991f01e0ed584e5164736f6c63430008140033",
  "linkReferences": {},
  "deployedLinkReferences": {}
}