{
  "_format": "hh-sol-artifact-1",
  "contractName": "KrewPersonal",
  "sourceName": "contracts/KrewPersonal.sol",
  "abi": [
    {
      "anonymous": false,
      "inputs": [
        {
          "indexed": true,
          "internalType": "address",
          "name": "owner",
          "type": "address"
        },
        {
          "indexed": true,
          "internalType": "uint256",
          "name": "krew",
          "type": "uint256"
        },
        {
          "indexed": false,
          "internalType": "uint256",
          "name": "fee",
          "type": "uint256"
        }
      ],
      "name": "ClaimKrewFee",
      "type": "event"
    },
    {
      "anonymous": false,
      "inputs": [
        {
          "indexed": false,
          "internalType": "uint8",
          "name": "version",
          "type": "uint8"
        }
      ],
      "name": "Initialized",
      "type": "event"
    },
    {
      "anonymous": false,
      "inputs": [
        {
          "indexed": true,
          "internalType": "uint256",
          "name": "krewId",
          "type": "uint256"
        },
        {
          "indexed": true,
          "internalType": "address",
          "name": "creator",
          "type": "address"
        }
      ],
      "name": "KrewCreated",
      "type": "event"
    },
    {
      "anonymous": false,
      "inputs": [
        {
          "indexed": true,
          "internalType": "address",
          "name": "previousOwner",
          "type": "address"
        },
        {
          "indexed": true,
          "internalType": "address",
          "name": "newOwner",
          "type": "address"
        }
      ],
      "name": "OwnershipTransferred",
      "type": "event"
    },
    {
      "anonymous": false,
      "inputs": [
        {
          "indexed": false,
          "internalType": "uint256",
          "name": "percent",
          "type": "uint256"
        }
      ],
      "name": "SetKrewOwnerFeePercent",
      "type": "event"
    },
    {
      "anonymous": false,
      "inputs": [
        {
          "indexed": true,
          "internalType": "address",
          "name": "oracle",
          "type": "address"
        }
      ],
      "name": "SetOracleAddress",
      "type": "event"
    },
    {
      "anonymous": false,
      "inputs": [
        {
          "indexed": true,
          "internalType": "address",
          "name": "destination",
          "type": "address"
        }
      ],
      "name": "SetProtocolFeeDestination",
      "type": "event"
    },
    {
      "anonymous": false,
      "inputs": [
        {
          "indexed": false,
          "internalType": "uint256",
          "name": "percent",
          "type": "uint256"
        }
      ],
      "name": "SetProtocolFeePercent",
      "type": "event"
    },
    {
      "anonymous": false,
      "inputs": [
        {
          "indexed": true,
          "internalType": "address",
          "name": "trader",
          "type": "address"
        },
        {
          "indexed": true,
          "internalType": "uint256",
          "name": "krew",
          "type": "uint256"
        },
        {
          "indexed": true,
          "internalType": "bool",
          "name": "isBuy",
          "type": "bool"
        },
        {
          "indexed": false,
          "internalType": "uint256",
          "name": "amount",
          "type": "uint256"
        },
        {
          "indexed": false,
          "internalType": "uint256",
          "name": "price",
          "type": "uint256"
        },
        {
          "indexed": false,
          "internalType": "uint256",
          "name": "protocolFee",
          "type": "uint256"
        },
        {
          "indexed": false,
          "internalType": "uint256",
          "name": "krewOwnerFee",
          "type": "uint256"
        },
        {
          "indexed": false,
          "internalType": "uint256",
          "name": "additionalFee",
          "type": "uint256"
        },
        {
          "indexed": false,
          "internalType": "uint256",
          "name": "supply",
          "type": "uint256"
        }
      ],
      "name": "Trade",
      "type": "event"
    },
    {
      "inputs": [
        {
          "internalType": "uint256",
          "name": "krew",
          "type": "uint256"
        },
        {
          "internalType": "uint256",
          "name": "amount",
          "type": "uint256"
        },
        {
          "internalType": "bytes",
          "name": "oracleSignature",
          "type": "bytes"
        }
      ],
      "name": "buyKeys",
      "outputs": [],
      "stateMutability": "payable",
      "type": "function"
    },
    {
      "inputs": [
        {
          "internalType": "uint256",
          "name": "price",
          "type": "uint256"
        },
        {
          "internalType": "bytes",
          "name": "oracleSignature",
          "type": "bytes"
        }
      ],
      "name": "calculateAdditionalTokenOwnerFee",
      "outputs": [
        {
          "internalType": "uint256",
          "name": "",
          "type": "uint256"
        }
      ],
      "stateMutability": "view",
      "type": "function"
    },
    {
      "inputs": [
        {
          "internalType": "uint256",
          "name": "krew",
          "type": "uint256"
        }
      ],
      "name": "claimKrewFee",
      "outputs": [],
      "stateMutability": "nonpayable",
      "type": "function"
    },
    {
      "inputs": [],
      "name": "createKrew",
      "outputs": [],
      "stateMutability": "nonpayable",
      "type": "function"
    },
    {
      "inputs": [
        {
          "internalType": "uint256",
          "name": "krewId",
          "type": "uint256"
        }
      ],
      "name": "existsKrew",
      "outputs": [
        {
          "internalType": "bool",
          "name": "",
          "type": "bool"
        }
      ],
      "stateMutability": "view",
      "type": "function"
    },
    {
      "inputs": [
        {
          "internalType": "uint256",
          "name": "krew",
          "type": "uint256"
        },
        {
          "internalType": "uint256",
          "name": "amount",
          "type": "uint256"
        }
      ],
      "name": "getBuyPrice",
      "outputs": [
        {
          "internalType": "uint256",
          "name": "",
          "type": "uint256"
        }
      ],
      "stateMutability": "view",
      "type": "function"
    },
    {
      "inputs": [
        {
          "internalType": "uint256",
          "name": "krew",
          "type": "uint256"
        },
        {
          "internalType": "uint256",
          "name": "amount",
          "type": "uint256"
        }
      ],
      "name": "getBuyPriceAfterFee",
      "outputs": [
        {
          "internalType": "uint256",
          "name": "",
          "type": "uint256"
        }
      ],
      "stateMutability": "view",
      "type": "function"
    },
    {
      "inputs": [
        {
          "internalType": "uint256",
          "name": "supply",
          "type": "uint256"
        },
        {
          "internalType": "uint256",
          "name": "amount",
          "type": "uint256"
        }
      ],
      "name": "getPrice",
      "outputs": [
        {
          "internalType": "uint256",
          "name": "",
          "type": "uint256"
        }
      ],
      "stateMutability": "pure",
      "type": "function"
    },
    {
      "inputs": [
        {
          "internalType": "uint256",
          "name": "krew",
          "type": "uint256"
        },
        {
          "internalType": "uint256",
          "name": "amount",
          "type": "uint256"
        }
      ],
      "name": "getSellPrice",
      "outputs": [
        {
          "internalType": "uint256",
          "name": "",
          "type": "uint256"
        }
      ],
      "stateMutability": "view",
      "type": "function"
    },
    {
      "inputs": [
        {
          "internalType": "uint256",
          "name": "krew",
          "type": "uint256"
        },
        {
          "internalType": "uint256",
          "name": "amount",
          "type": "uint256"
        }
      ],
      "name": "getSellPriceAfterFee",
      "outputs": [
        {
          "internalType": "uint256",
          "name": "",
          "type": "uint256"
        }
      ],
      "stateMutability": "view",
      "type": "function"
    },
    {
      "inputs": [
        {
          "internalType": "uint256",
          "name": "",
          "type": "uint256"
        },
        {
          "internalType": "address",
          "name": "",
          "type": "address"
        }
      ],
      "name": "holderBalance",
      "outputs": [
        {
          "internalType": "uint256",
          "name": "",
          "type": "uint256"
        }
      ],
      "stateMutability": "view",
      "type": "function"
    },
    {
      "inputs": [
        {
          "internalType": "address payable",
          "name": "_protocolFeeDestination",
          "type": "address"
        },
        {
          "internalType": "uint256",
          "name": "_protocolFeePercent",
          "type": "uint256"
        },
        {
          "internalType": "uint256",
          "name": "_krewOwnerFeePercent",
          "type": "uint256"
        }
      ],
      "name": "initialize",
      "outputs": [],
      "stateMutability": "nonpayable",
      "type": "function"
    },
    {
      "inputs": [],
      "name": "krewOwnerFeePercent",
      "outputs": [
        {
          "internalType": "uint256",
          "name": "",
          "type": "uint256"
        }
      ],
      "stateMutability": "view",
      "type": "function"
    },
    {
      "inputs": [
        {
          "internalType": "uint256",
          "name": "",
          "type": "uint256"
        }
      ],
      "name": "krews",
      "outputs": [
        {
          "internalType": "address",
          "name": "owner",
          "type": "address"
        },
        {
          "internalType": "uint256",
          "name": "supply",
          "type": "uint256"
        },
        {
          "internalType": "uint256",
          "name": "accumulatedFee",
          "type": "uint256"
        }
      ],
      "stateMutability": "view",
      "type": "function"
    },
    {
      "inputs": [],
      "name": "nextKrewId",
      "outputs": [
        {
          "internalType": "uint256",
          "name": "",
          "type": "uint256"
        }
      ],
      "stateMutability": "view",
      "type": "function"
    },
    {
      "inputs": [],
      "name": "oracleAddress",
      "outputs": [
        {
          "internalType": "address",
          "name": "",
          "type": "address"
        }
      ],
      "stateMutability": "view",
      "type": "function"
    },
    {
      "inputs": [],
      "name": "owner",
      "outputs": [
        {
          "internalType": "address",
          "name": "",
          "type": "address"
        }
      ],
      "stateMutability": "view",
      "type": "function"
    },
    {
      "inputs": [],
      "name": "protocolFeeDestination",
      "outputs": [
        {
          "internalType": "address payable",
          "name": "",
          "type": "address"
        }
      ],
      "stateMutability": "view",
      "type": "function"
    },
    {
      "inputs": [],
      "name": "protocolFeePercent",
      "outputs": [
        {
          "internalType": "uint256",
          "name": "",
          "type": "uint256"
        }
      ],
      "stateMutability": "view",
      "type": "function"
    },
    {
      "inputs": [],
      "name": "renounceOwnership",
      "outputs": [],
      "stateMutability": "nonpayable",
      "type": "function"
    },
    {
      "inputs": [
        {
          "internalType": "uint256",
          "name": "krew",
          "type": "uint256"
        },
        {
          "internalType": "uint256",
          "name": "amount",
          "type": "uint256"
        },
        {
          "internalType": "bytes",
          "name": "oracleSignature",
          "type": "bytes"
        }
      ],
      "name": "sellKeys",
      "outputs": [],
      "stateMutability": "nonpayable",
      "type": "function"
    },
    {
      "inputs": [
        {
          "internalType": "uint256",
          "name": "_feePercent",
          "type": "uint256"
        }
      ],
      "name": "setKrewOwnerFeePercent",
      "outputs": [],
      "stateMutability": "nonpayable",
      "type": "function"
    },
    {
      "inputs": [
        {
          "internalType": "address",
          "name": "_oracle",
          "type": "address"
        }
      ],
      "name": "setOracleAddress",
      "outputs": [],
      "stateMutability": "nonpayable",
      "type": "function"
    },
    {
      "inputs": [
        {
          "internalType": "address payable",
          "name": "_feeDestination",
          "type": "address"
        }
      ],
      "name": "setProtocolFeeDestination",
      "outputs": [],
      "stateMutability": "nonpayable",
      "type": "function"
    },
    {
      "inputs": [
        {
          "internalType": "uint256",
          "name": "_feePercent",
          "type": "uint256"
        }
      ],
      "name": "setProtocolFeePercent",
      "outputs": [],
      "stateMutability": "nonpayable",
      "type": "function"
    },
    {
      "inputs": [
        {
          "internalType": "address",
          "name": "newOwner",
          "type": "address"
        }
      ],
      "name": "transferOwnership",
      "outputs": [],
      "stateMutability": "nonpayable",
      "type": "function"
    }
  ],
  "bytecode": "0x608060405234801561001057600080fd5b50611ad7806100206000396000f3fe6080604052600436106101815760003560e01c80638da5cb5b116100d1578063b1a491e01161008a578063cd9c712111610064578063cd9c71211461049d578063d6e6eb9f146104bd578063f2fde38b146104d3578063fb350a1b146104f357600080fd5b8063b1a491e014610447578063b84dd74314610467578063c157253d1461047d57600080fd5b80638da5cb5b146103895780639477d85d146103a7578063a10786b0146103c7578063a4983421146103e7578063a89ae4ba14610407578063ab0c02991461042757600080fd5b80634689fda21161013e5780635a114ff3116101185780635a114ff3146103145780635cf4ee9114610334578063715018a6146103545780637a1ac61e1461036957600080fd5b80634689fda2146102a65780634c69c00f146102bc5780634ce7957c146102dc57600080fd5b806303f822f314610186578063063a741f146101a85780630f6e81d9146101db57806318a8cfeb14610246578063422022571461027e57806342e817bf14610293575b600080fd5b34801561019257600080fd5b506101a66101a13660046117a6565b610535565b005b3480156101b457600080fd5b506101c86101c33660046117bf565b610621565b6040519081526020015b60405180910390f35b3480156101e757600080fd5b506102216101f63660046117a6565b609c602052600090815260409020805460018201546002909201546001600160a01b03909116919083565b604080516001600160a01b0390941684526020840192909252908201526060016101d2565b34801561025257600080fd5b506101c86102613660046117f6565b609d60209081526000928352604080842090915290825290205481565b34801561028a57600080fd5b506101a661069b565b6101a66102a13660046118c9565b610721565b3480156102b257600080fd5b506101c860995481565b3480156102c857600080fd5b506101a66102d7366004611919565b610743565b3480156102e857600080fd5b506097546102fc906001600160a01b031681565b6040516001600160a01b0390911681526020016101d2565b34801561032057600080fd5b506101a661032f3660046118c9565b610795565b34801561034057600080fd5b506101c861034f3660046117bf565b6107b1565b34801561036057600080fd5b506101a66108c8565b34801561037557600080fd5b506101a6610384366004611936565b6108dc565b34801561039557600080fd5b506033546001600160a01b03166102fc565b3480156103b357600080fd5b506101c86103c23660046117bf565b610aae565b3480156103d357600080fd5b506101a66103e2366004611919565b610adc565b3480156103f357600080fd5b506101a66104023660046117a6565b610b2e565b34801561041357600080fd5b50609a546102fc906001600160a01b031681565b34801561043357600080fd5b506101a66104423660046117a6565b610b72565b34801561045357600080fd5b506101c861046236600461196b565b610baf565b34801561047357600080fd5b506101c8609b5481565b34801561048957600080fd5b506101c86104983660046117bf565b610d3c565b3480156104a957600080fd5b506101c86104b83660046117bf565b610d58565b3480156104c957600080fd5b506101c860985481565b3480156104df57600080fd5b506101a66104ee366004611919565b610dc6565b3480156104ff57600080fd5b5061052561050e3660046117a6565b6000908152609c6020526040902060010154151590565b60405190151581526020016101d2565b61053d610e3c565b6000818152609c60205260409020546001600160a01b031633146105bc5760405162461bcd60e51b815260206004820152602b60248201527f4b726577506572736f6e616c3a204f6e6c79206b726577206f776e657220636160448201526a6e20636c61696d2066656560a81b60648201526084015b60405180910390fd5b6000818152609c6020526040812060020180549190556105dc3382610e95565b604051818152829033907fd0862e13d081785714cefc204cd35af9c9e6f7e159319965c8dcfa516d2a40629060200160405180910390a35061061e6001606555565b50565b60008061062e8484610d3c565b90506000670de0b6b3a76400006098548361064991906119c8565b61065391906119df565b90506000670de0b6b3a76400006099548461066e91906119c8565b61067891906119df565b9050806106858385611a01565b61068f9190611a01565b93505050505b92915050565b609b8054600091826106ac83611a14565b909155506000818152609c6020908152604080832080546001600160a01b0319163390811782556001808301819055609d855283862082875290945282852093909355905193945092909184917fe80a1ac513c367b1e0f8fb7d4852f043ee635fa37d42944df34be8d5686b61d39190a35050565b600061072d8484610d3c565b905061073d848483600186610fba565b50505050565b61074b6112f2565b609a80546001600160a01b0319166001600160a01b0383169081179091556040517f0adef86c673dfdb102affe9a454acea4a42a305e1feb982b4b2c97da980454a990600090a250565b60006107a18484610aae565b905061073d848483600086610fba565b600080831561080c5760066107c7600186611a2d565b6107d29060026119c8565b6107dd906001611a01565b856107e9600182611a2d565b6107f391906119c8565b6107fd91906119c8565b61080791906119df565b61080f565b60005b90506000841580156108215750836001145b61089657600684610833600188611a2d565b61083d9190611a01565b6108489060026119c8565b610853906001611a01565b61085d8688611a01565b8661086960018a611a2d565b6108739190611a01565b61087d91906119c8565b61088791906119c8565b61089191906119df565b610899565b60005b905060006108a78383611a2d565b9050613e806108be82670de0b6b3a76400006119c8565b61068f91906119df565b6108d06112f2565b6108da600061134c565b565b600054610100900460ff16158080156108fc5750600054600160ff909116105b806109165750303b158015610916575060005460ff166001145b6109795760405162461bcd60e51b815260206004820152602e60248201527f496e697469616c697a61626c653a20636f6e747261637420697320616c72656160448201526d191e481a5b9a5d1a585b1a5e995960921b60648201526084016105b3565b6000805460ff19166001179055801561099c576000805461ff0019166101001790555b6109a461139e565b6109ac6113cd565b609780546001600160a01b0319166001600160a01b038616908117909155609884905560998390556040517f72fe3f5fb15c2671900303001fbe3a8adf9df5c76bfd269a9508c8753b9c35c990600090a26040518381527f98d1698e9a7ee55a2ded97de72077c93add26ce8534679021d0e7c44edcb325b9060200160405180910390a16040518281527fcef131bbef604e7ba86eb3f44a6ad6879b3702a4ff152f6a4815fd76e7f58ff89060200160405180910390a1801561073d576000805461ff0019169055604051600181527f7f26b83ff96e1f2b6a682f133852f6798a09c465da95921460cefb38474024989060200160405180910390a150505050565b6000828152609c6020526040812060010154610ad590610acf908490611a2d565b836107b1565b9392505050565b610ae46112f2565b609780546001600160a01b0319166001600160a01b0383169081179091556040517f72fe3f5fb15c2671900303001fbe3a8adf9df5c76bfd269a9508c8753b9c35c990600090a250565b610b366112f2565b60988190556040518181527f98d1698e9a7ee55a2ded97de72077c93add26ce8534679021d0e7c44edcb325b906020015b60405180910390a150565b610b7a6112f2565b60998190556040518181527fcef131bbef604e7ba86eb3f44a6ad6879b3702a4ff152f6a4815fd76e7f58ff890602001610b67565b60008151600003610bc257506000610695565b600080610bce846113fc565b915091506000610c3c8684604051602001610bf3929190918252602082015260400190565b604051602081830303815290604052805190602001207f19457468657265756d205369676e6564204d6573736167653a0a3332000000006000908152601c91909152603c902090565b9050808214610c995760405162461bcd60e51b815260206004820152602360248201527f4b726577506572736f6e616c3a20496e76616c696420646174612070726f766960448201526219195960ea1b60648201526084016105b3565b6000610ca582876114d8565b609a549091506001600160a01b03808316911614610d145760405162461bcd60e51b815260206004820152602660248201527f4b726577506572736f6e616c3a20496e76616c6964206f7261636c65207369676044820152656e617475726560d01b60648201526084016105b3565b670de0b6b3a7640000610d2785896119c8565b610d3191906119df565b979650505050505050565b6000828152609c6020526040812060010154610ad590836107b1565b600080610d658484610aae565b90506000670de0b6b3a764000060985483610d8091906119c8565b610d8a91906119df565b90506000670de0b6b3a764000060995484610da591906119c8565b610daf91906119df565b905080610dbc8385611a2d565b61068f9190611a2d565b610dce6112f2565b6001600160a01b038116610e335760405162461bcd60e51b815260206004820152602660248201527f4f776e61626c653a206e6577206f776e657220697320746865207a65726f206160448201526564647265737360d01b60648201526084016105b3565b61061e8161134c565b600260655403610e8e5760405162461bcd60e51b815260206004820152601f60248201527f5265656e7472616e637947756172643a207265656e7472616e742063616c6c0060448201526064016105b3565b6002606555565b80471015610ee55760405162461bcd60e51b815260206004820152601d60248201527f416464726573733a20696e73756666696369656e742062616c616e636500000060448201526064016105b3565b6000826001600160a01b03168260405160006040518083038185875af1925050503d8060008114610f32576040519150601f19603f3d011682016040523d82523d6000602084013e610f37565b606091505b5050905080610fae5760405162461bcd60e51b815260206004820152603a60248201527f416464726573733a20756e61626c6520746f2073656e642076616c75652c207260448201527f6563697069656e74206d6179206861766520726576657274656400000000000060648201526084016105b3565b505050565b6001606555565b610fc2610e3c565b6000610fce8483610baf565b9050600081670de0b6b3a764000060995487610fea91906119c8565b610ff491906119df565b610ffe9190611a01565b9050600082670de0b6b3a76400006098548861101a91906119c8565b61102491906119df565b61102e9190611a2d565b6000898152609c60205260409020600181015491925090861561117e5783611056848a611a01565b6110609190611a01565b3410156110ba5760405162461bcd60e51b815260206004820152602260248201527f4b726577506572736f6e616c3a20496e73756666696369656e74207061796d656044820152611b9d60f21b60648201526084016105b3565b60008a8152609d60209081526040808320338452909152812080548b92906110e3908490611a01565b909155506110f390508982611a01565b9050808260010181905550838260020160008282546111129190611a01565b909155505060975461112d906001600160a01b031684610e95565b83611138848a611a01565b6111429190611a01565b34111561117957600084846111578b34611a2d565b6111619190611a2d565b61116b9190611a2d565b90506111773382610e95565b505b61127e565b60008a8152609d602090815260408083203384529091529020548911156111e75760405162461bcd60e51b815260206004820152601f60248201527f4b726577506572736f6e616c3a20496e73756666696369656e74206b6579730060448201526064016105b3565b60008a8152609d60209081526040808320338452909152812080548b9290611210908490611a2d565b9091555061122090508982611a2d565b600183018190559050600084611236858b611a2d565b6112409190611a2d565b9050848360020160008282546112569190611a01565b9091555061126690503382610e95565b60975461127c906001600160a01b031685610e95565b505b604080518a8152602081018a9052908101849052606081018590526080810186905260a08101829052871515908b9033907fb8099acc1c84bf6f63b9ed9adcc4a35671c4892f876e1f382d0f8044e15a6d009060c00160405180910390a450505050506112eb6001606555565b5050505050565b6033546001600160a01b031633146108da5760405162461bcd60e51b815260206004820181905260248201527f4f776e61626c653a2063616c6c6572206973206e6f7420746865206f776e657260448201526064016105b3565b603380546001600160a01b038381166001600160a01b0319831681179093556040519116919082907f8be0079c531659141344cd1fd0a4f28419497f9722a3daafe3b4186f6b6457e090600090a35050565b600054610100900460ff166113c55760405162461bcd60e51b81526004016105b390611a40565b6108da6114fc565b600054610100900460ff166113f45760405162461bcd60e51b81526004016105b390611a40565b6108da61152c565b600080825160601461145f5760405162461bcd60e51b815260206004820152602660248201527f4b726577506572736f6e616c3a20496e76616c6964207369676e6174757265206044820152650d8cadccee8d60d31b60648201526084016105b3565b50506020810151604082015181670de0b6b3a76400008111156114d25760405162461bcd60e51b815260206004820152602560248201527f4b726577506572736f6e616c3a2046656520726174696f206f7574206f6620626044820152646f756e647360d81b60648201526084016105b3565b50915091565b60008060006114e78585611553565b915091506114f481611598565b509392505050565b600054610100900460ff166115235760405162461bcd60e51b81526004016105b390611a40565b6108da3361134c565b600054610100900460ff16610fb35760405162461bcd60e51b81526004016105b390611a40565b60008082516041036115895760208301516040840151606085015160001a61157d878285856116e2565b94509450505050611591565b506000905060025b9250929050565b60008160048111156115ac576115ac611a8b565b036115b45750565b60018160048111156115c8576115c8611a8b565b036116155760405162461bcd60e51b815260206004820152601860248201527f45434453413a20696e76616c6964207369676e6174757265000000000000000060448201526064016105b3565b600281600481111561162957611629611a8b565b036116765760405162461bcd60e51b815260206004820152601f60248201527f45434453413a20696e76616c6964207369676e6174757265206c656e6774680060448201526064016105b3565b600381600481111561168a5761168a611a8b565b0361061e5760405162461bcd60e51b815260206004820152602260248201527f45434453413a20696e76616c6964207369676e6174757265202773272076616c604482015261756560f01b60648201526084016105b3565b6000807f7fffffffffffffffffffffffffffffff5d576e7357a4501ddfe92f46681b20a0831115611719575060009050600361179d565b6040805160008082526020820180845289905260ff881692820192909252606081018690526080810185905260019060a0016020604051602081039080840390855afa15801561176d573d6000803e3d6000fd5b5050604051601f1901519150506001600160a01b0381166117965760006001925092505061179d565b9150600090505b94509492505050565b6000602082840312156117b857600080fd5b5035919050565b600080604083850312156117d257600080fd5b50508035926020909101359150565b6001600160a01b038116811461061e57600080fd5b6000806040838503121561180957600080fd5b82359150602083013561181b816117e1565b809150509250929050565b634e487b7160e01b600052604160045260246000fd5b600082601f83011261184d57600080fd5b813567ffffffffffffffff8082111561186857611868611826565b604051601f8301601f19908116603f0116810190828211818310171561189057611890611826565b816040528381528660208588010111156118a957600080fd5b836020870160208301376000602085830101528094505050505092915050565b6000806000606084860312156118de57600080fd5b8335925060208401359150604084013567ffffffffffffffff81111561190357600080fd5b61190f8682870161183c565b9150509250925092565b60006020828403121561192b57600080fd5b8135610ad5816117e1565b60008060006060848603121561194b57600080fd5b8335611956816117e1565b95602085013595506040909401359392505050565b6000806040838503121561197e57600080fd5b82359150602083013567ffffffffffffffff81111561199c57600080fd5b6119a88582860161183c565b9150509250929050565b634e487b7160e01b600052601160045260246000fd5b8082028115828204841417610695576106956119b2565b6000826119fc57634e487b7160e01b600052601260045260246000fd5b500490565b80820180821115610695576106956119b2565b600060018201611a2657611a266119b2565b5060010190565b81810381811115610695576106956119b2565b6020808252602b908201527f496e697469616c697a61626c653a20636f6e7472616374206973206e6f74206960408201526a6e697469616c697a696e6760a81b606082015260800190565b634e487b7160e01b600052602160045260246000fdfea2646970667358221220714a16447970e86081670a877536cbf52369490c07903c6b87362621f8ca58d864736f6c63430008140033",
  "linkReferences": {},
  "deployedLinkReferences": {}
}